:020000040800F2
:1000000000800120A10D00083F0200084D020008F9
:1000100053020008590200085F02000800000000B7
:100020000000000000000000000000006502000861
:100030007302000800000000810200088F0200081F
:10004000E90D0008E90D0008E90D0008E90D0008B8
:10005000E90D0008E90D00082D030008E90D00086E
:10006000E90D0008E90D0008E90D0008E90D000898
:10007000E90D0008E90D0008E90D0008E90D000888
:10008000E90D0008E90D0008E90D0008E90D000878
:10009000E90D0008E90D0008E90D0008E90D000868
:1000A000E90D0008E90D0008E90D0008E90D000858
:1000B000E90D0008E90D0008E90D0008E90D000848
:1000C000E90D0008E90D0008E90D0008E90D000838
:1000D000E90D0008E90D0008E90D0008E90D000828
:1000E000E90D0008E90D0008E90D0008E90D000818
:1000F000E90D0008E90D0008E90D0008E90D000808
:10010000E90D0008E90D0008E90D0008E90D0008F7
:10011000E90D0008E90D0008E90D0008E90D0008E7
:10012000E90D0008E90D0008E90D0008E90D0008D7
:10013000E90D0008E90D0008E90D0008E90D0008C7
:1001400000000000000000000000000000000000AF
:10015000E90D0008E90D0008E90D0008E90D0008A7
:10016000E90D0008E90D0008E90D0008E90D000897
:10017000E90D0008E90D0008E90D0008E90D000887
:04018000E90D00087D
:1001840010B5054C237833B9044B13B10448AFF3CD
:1001940000800123237010BD2C000020000000000B
:1001A4006012000808B5034B1BB103490348AFF3C1
:1001B400008008BD0000000030000020601200082C
:1001C40080B500AF00F0FAF80121012000F0B8F981
:1001D40000BF00F051F90346002BFAD001223B2165
:1001E400022000F043FA002000F0E2FA012102208C
:1001F40000F0A6F900BF192000F016F90346012B00
:10020400F9D1002000F0F0F9042000F019FA0420DC
:1002140000F000FA012000F0AFFA022000F074FAB6
:1002240000BF00F09BFA0346022BFAD1002000F035
:10023400A3FA00F01DFE00BF80BD80B400AF00BF74
:10024400BD465DF8047B704780B400AFFEE780B420
:1002540000AFFEE780B400AFFEE780B400AFFEE776
:1002640080B400AF00BFBD465DF8047B704780B426
:1002740000AF00BFBD465DF8047B704780B400AF9B
:1002840000BFBD465DF8047B704780B400AF00BF7B
:10029400BD465DF8047B704780B584B000AF012192
:1002A4004FF4C01000F00DF90021002000F000FC14
:1002B4003B1D184600F092FA01237B7300233B7127
:1002C4000123BB6000233B733B1D184600F09CFADE
:1002D400032000F037FD00220021062000F011FD6C
:1002E40000BF1037BD4680BD80B500AF052000F0CB
:1002F40045FF012000F0ECFA0121094800F0BCFBA5
:100304000346012B0AD1074B1B78042B03D1054B61
:1003140001221A7002E0034B04221A7000BF80BD50
:10032400000801400000002080B500AFFFF7DCFFAB
:1003340000BF80BD80B500AFFFF742FF00F040FE74
:10034400FFF7AAFF002000F0CFFE1B4B1B789BB2E7
:100354001A46920013441A4691001A460B46134457
:100364009B009BB2184600F009FF012000F0BCFE80
:10037400114B1B789BB21A46920013441A46910003
:100384001A460B4613449B009BB2184600F0F6FE37
:10039400022000F0A9FE084B1B789BB21A4692007B
:1003A40013441A4691001A460B4613449B009BB211
:1003B400184600F0E3FEC5E70000002080B400AF5B
:1003C400184A136843F00103136000BF154B1B6800
:1003D400C3F34003DBB2012BF8D1124A53686FF325
:1003E4000103536000BF0F4B5B68C3F38103DBB2AF
:1003F400002BF8D10B4B1B680A4A23F0867323F4B5
:1004040080331360074B00225A60064B00221A63A4
:10041400044B4FF41F029A6000BFBD465DF8047B95
:10042400704700BF0010024080B485B000AF786010
:100434000023FB737B681B0C03F1804303F5043337
:100444001A687B6803F01F03012101FA03F31A40C1
:100454007B6803F01F03012101FA03F39A4202D0DF
:100464000023FB7301E00123FB73FB7B1846143765
:10047400BD465DF8047B704780B582B000AF0023B1
:100484007B600023FB7002E07B6801337B601120FA
:10049400FFF7CAFF0346012B03D07B68B3F5405F27
:1004A400F2D31120FFF7C0FF0346012B02D0002333
:1004B400FB7001E00123FB70FB7818460837BD464A
:1004C40080BD80B483B000AF78600B46FB70FB78CE
:1004D400012B16D17B681B0C03F1804303F5043315
:1004E40019687B6803F01F0301229A407B681B0C88
:1004F40003F1804303F50433184641EA0203036021
:1005040017E07B681B0C03F1804303F5043319687F
:100514007B6803F01F03012202FA03F3DA437B68CA
:100524001B0C03F1804303F50433184601EA02036C
:10053400036000BF0C37BD465DF8047B70470000C4
:1005440080B483B000AF03460A46FB711346BB7107
:10055400FB79042B3ED801A252F823F0750500085C
:10056400890500089D050008B1050008C5050008B7
:100574001C4ABB7903F00103D9B2136861F3000389
:10058400136028E0174ABB7903F00103D9B213685A
:1005940061F3104313601EE0124ABB7903F00103B8
:1005A400D9B2136861F31863136014E00D4ABB7980
:1005B40003F00103D9B2136A61F3000313620AE082
:1005C400084ABB7903F00103D9B2536A61F300030B
:1005D400536200E000BF00BF0C37BD465DF8047BEA
:1005E400704700BF0010024080B483B000AF0346E0
:1005F400FB71074AFB7903F00F03D9B2536861F327
:100604000713536000BF0C37BD465DF8047B704789
:100614000010024080B483B000AF0346FB71074A68
:10062400FB7903F00703D9B2536861F30A235360DB
:1006340000BF0C37BD465DF8047B704700100240D4
:1006440080B483B000AF0346FB71074AFB7903F023
:100654000703D9B2536861F3CD23536000BF0C374D
:10066400BD465DF8047B70470010024080B483B03F
:1006740000AF0346FB710B46BB7113467B71FB79DC
:10068400002B0AD11F4A53686FF3104353601D4A6D
:10069400136B43F00073136312E01A4A536843F474
:1006A40080335360FB79012B05D1164A53686FF3ED
:1006B4005143536004E0134A536843F400335360D6
:1006C400104ABB7903F00F03D9B2536861F3954321
:1006D4005360BB791B110B4A03F00303D9B253686F
:1006E40061F35E735360074A7B7903F00103D9B267
:1006F400536861F3DF73536000BF0C37BD465DF888
:10070400047B70470010024080B483B000AF0346FE
:10071400FB71114AFB7903F00303D9B2536861F307
:100724000103536000BF00BF00BF00BF00BF00BF94
:1007340000BF00BF00BF00BF00BF00BF00BF00BFBD
:1007440000BF00BF00BF00BF00BF00BF00BF0C3729
:10075400BD465DF8047B70470010024080B400AFD2
:10076400044B5B68C3F38103DBB21846BD465DF8F6
:10077400047B70470010024080B483B000AF03468E
:10078400FB71FB79012B05D1084A536D43F030030B
:10079400536504E0054A536D6FF30513536500BFB9
:1007A4000C37BD465DF8047B704700BF0010024063
:1007B40080B483B000AF0346FB71074AFB7903F0B2
:1007C4000303D9B2536D61F30D33536500BF0C3786
:1007D400BD465DF8047B70470010024080B483B0CE
:1007E40000AF78607B6800225A727B6800225A60EE
:1007F4007B6801221A727B6801221A7000BF0C37D1
:10080400BD465DF8047B704780B485B000AF786066
:100814000023FB607B685B68FB602C4B1A68FB68F9
:10082400DB432A4913400B60284B5A68FB68DB43BF
:10083400264913404B607B685B7A002B40D07B6871
:100844001B78002B06D1214B1A682049FB681343FF
:100854000B6005E01D4B5A681C49FB6813434B6051
:100864001A4B9A68FB68DB43184913408B60174B9B
:10087400DA68FB68DB4315491340CB607B681B7A5D
:10088400002B06D1114B9A681049FB6813438B6007
:1008940016E07B681B7A012B06D10C4BDA680B49F6
:1008A400FB681343CB600BE0084B9A680749FB686D
:1008B40013438B60054BDA680449FB681343CB6030
:1008C40000BF1437BD465DF8047B70470004014047
:1008D40080B483B000AF78600B4B1A697B68134017
:1008E4007A689A4206D1084A7B685361064A7B6853
:1008F400536102E0044A7B68536100BF0C37BD4674
:100904005DF8047B704700BF0004014080B485B0EB
:1009140000AF786039603B681B683B813B689B791A
:10092400032B02D100237B8130E03B689B79002BB1
:1009340015D13B685B799BB203F00F037B813B6865
:100944005B79182B03D13A897B681A611EE03B68F6
:100954005B79282B1AD13A897B685A6116E03B6887
:100964009B791BB203F008031AB23B681B791BB2D4
:1009740003F004031BB213431AB23B68DB791BB2C6
:1009840003F003031BB213431BB27B813B89DBB22D
:10099400002B25D00023FB601FE03A89FB6842FA54
:1009A40003F303F00103002B14D07B681B68FA687F
:1009B40092000F2101FA02F2D2431A407B681A60B6
:1009C4007B681B687989FA68920001FA02F21A437B
:1009D4007B681A60FB680133FB60FB68072BDCD97A
:1009E4003B89FF2B28D93B891B0A3B810023FB60F1
:1009F4001FE03A89FB6842FA03F303F00103002B7A
:100A040014D07B685B68FA6892000F2101FA02F245
:100A1400D2431A407B685A607B685B687989FA68BC
:100A2400920001FA02F21A437B685A60FB680133B0
:100A3400FB60FB68072BDCD900BF1437BD465DF8AB
:100A4400047B704780B483B000AF78607B684FF656
:100A5400FF721A607B6800229A717B6800221A7107
:100A64007B6804225A717B680122DA7100BF0C375B
:100A7400BD465DF8047B704780B485B000AF7860F4
:100A84000B467B800023FB737A8879887B689B689C
:100A94000B409A4202D00023FB7301E00123FB7355
:100AA400FB7B18461437BD465DF8047B7047000095
:100AB40080B485B000AF03460A46FB711346BB7190
:100AC4000023FB60BB7903F003039B000F2202FAAF
:100AD40003F3FB60BB799B08DBB2032B5AD801A25A
:100AE40052F823F0F90A0008210B0008490B00080A
:100AF400710B00082B4B9A68FB68DB4329491340B0
:100B04008B60284B9A68F979BB7903F003039B0047
:100B140001FA03F3234913438B603CE0214BDA6869
:100B2400FB68DB431F491340CB601E4BDA68F9793D
:100B3400BB7903F003039B0001FA03F31949134340
:100B4400CB6028E0174B1A69FB68DB431549134057
:100B54000B61144B1A69F979BB7903F003039B0009
:100B640001FA03F30F4913430B6114E00D4B5A6967
:100B7400FB68DB430B4913404B610A4B5A69F97913
:100B8400BB7903F003039B0001FA03F30549134304
:100B94004B6100E000BF00BF1437BD465DF8047B25
:100BA400704700BF0000014080B485B000AF78609A
:100BB4007B6803F00703FB600C4BDB68BB60BA681F
:100BC4004FF6FF031340BB60FB681A02BB68134374
:100BD40043F0BF6343F40033BB60044ABB68D36093
:100BE40000BF1437BD465DF8047B704700ED00E09C
:100BF40080B400AF044BDB681B0A03F007031846FC
:100C0400BD465DF8047B704700ED00E080B483B01E
:100C140000AF0346FB7197F90730002B0BDBFB7920
:100C240003F01F02074997F907305B09012000FA16
:100C340002F241F8232000BF0C37BD465DF8047B67
:100C4400704700BF00E100E080B483B000AF03460A
:100C54003960FB7197F90730002B0ADB3B68DAB285
:100C64000C4997F907301201D2B20B4483F80023E0
:100C74000AE03B68DAB20849FB7903F00F03043B4E
:100C84001201D2B20B441A7600BF0C37BD465DF890
:100C9400047B704700E100E000ED00E080B489B01F
:100CA40000AFF860B9607A60FB6803F00703FB618A
:100CB400FB69C3F10703042B28BF0423BB61FB6951
:100CC4000433062B02D9FB69033B00E000237B615C
:100CD4004FF0FF32BB6902FA03F3DA43BB681A40F0
:100CE4007B699A404FF0FF317B6901FA03F3D943E2
:100CF4007B680B40134318462437BD465DF8047BDC
:100D0400704780B586B000AF0346B9607A60FB7364
:100D140000237B61FFF76CFF03467A68B9681846C5
:100D2400FFF7BCFF786197F90F3079691846FFF730
:100D34008BFF97F90F301846FFF768FF00BF18378D
:100D4400BD4680BD80B582B000AF0346FB71FB7920
:100D54001846FFF729FF00BF0837BD4680BD0000D5
:100D640080B483B000AF0346FB71FB79042B06D13A
:100D7400094B1B68084A43F00403136005E0064B63
:100D84001B68054A23F00403136000BF0C37BD46FB
:100D94005DF8047B704700BF10E000E0002103E031
:100DA4000B4B5B58435004310A480B4B42189A4290
:100DB400F6D30A4A02E0002342F8043B084B9A4265
:100DC400F9D300F011F800F025FAFFF7B3FA7047F1
:100DD40090120008000000202C0000202C000020AD
:100DE40050000020FEE7000080B400AF1E4BD3F893
:100DF40088301D4A43F47003C2F888301B4A1368D4
:100E040043F00103136000BF184B1B68C3F3400396
:100E1400DBB2012BF8D1154A53686FF30103536019
:100E240000BF124B5B68C3F38103DBB2002BF8D124
:100E34000E4B1B680D4A23F0867323F48033136032
:100E44000A4B00225A60094B00221A63074B4FF4E5
:100E54001F029A60044B4FF000629A6000BFBD46C7
:100E64005DF8047B704700BF00ED00E00010024015
:100E740080B588B000AF0023BB610023FB61002371
:100E84007B6100233B610023FB600023BB60FFF711
:100E940065FC0346FB71FB79022B20D0022B69DC35
:100EA400002B02D0012B16D064E03F4B5B6DC3F3E3
:100EB4004023DBB2002B0AD03B4B1B6BC3F34063D4
:100EC400DBB2002B03D0394B394A1A6056E0374B5A
:100ED400384A1A6052E0354B364A1A604EE0324BBB
:100EE4005B68C3F30043DBB23B612F4B5B68C3F326
:100EF4008343DBB2FB612C4B5B68C3F34173DBB20E
:100F04007B617B69002B02D1FB690F2B06D17B69C6
:100F14001A01FB6913440133FB6102E0FB690233EC
:100F2400FB613B69002B06D1FB69234A02FB03F3F7
:100F34001E4A136022E01C4B5B68C3F34043DBB2E0
:100F4400002B10D0184B5B6DC3F30133DBB2BB61D4
:100F5400BB690233174AB2FBF3F3FA6902FB03F3EA
:100F6400124A13600AE0FB69124A02FB03F30F4AB8
:100F7400136003E00D4B0F4A1A6000BF0A4B5B6815
:100F8400C3F30313DBB2FB600C4AFB6813441B7806
:100F9400BB60064B1A68BB6822FA03F3034A13606A
:100FA40000BF2037BD4680BD001002400400002071
:100FB400006CDC0200127A0000093D00781200087F
:100FC40080B500AF00F0BAF8002000F035F8012039
:100FD40000F032F8022000F02FF8002000F060F852
:100FE400012000F05DF8022000F05AF800F002F849
:100FF40000BF80BD80B582B000AF01210C48FFF76F
:1010040060FA3B461846FFF71DFD0123FB710023E0
:101014003B710023BB7101233B6028237B713B465A
:1010240019460448FFF772FC00BF0837BD4680BD6F
:10103400020018000008014080B584B000AF0346E8
:10104400FB71FB79134A52F8233001211846FFF74C
:1010540038FA07F108031846FFF7F4FC0123FB7381
:1010640000233B731023BB73FB790B4A32F8133014
:10107400BB6004237B73FB79084A52F8233007F1E1
:10108400080211461846FFF741FC00BF1037BD4661
:1010940080BD00BF1C0000201400002008000020B8
:1010A40080B483B000AF0346FB71FB79022B10D8E8
:1010B400FB790B4A32F81330002B0BD0FB79084A2A
:1010C40032F81310FB79074A52F823300A461A61A2
:1010D40000E000BF0C37BD465DF8047B704700BFDD
:1010E400140000200800002080B483B000AF034641
:1010F400FB71FB79022B16D8FB790E4A32F81330B8
:10110400002B11D0FB790C4A52F82330DA68FB79B2
:10111400084931F813301846FB79074951F8233050
:101124004240DA6000E000BF0C37BD465DF8047B46
:10113400704700BF140000200800002080B500AFF5
:101144000420FFF70DFE094B1B68094AA2FB032389
:101154009B0C084A1360074B1B684FF47A7202FB1E
:1011640003F3054A136000BF80BD00BF04000020E4
:1011740083DE1B43480000204C00002080B485B06F
:1011840000AF0346FB800023FB6035E0FB88322B75
:101194000AD91E4B1B681E4A322101FB03F353601C
:1011A400FB88323BFB8008E0FB88184A1268184928
:1011B40002FB03F34B600023FB80154B00229A6073
:1011C400134B1B68124A43F001031360104B1B6856
:1011D400FB60FB6803F00103002B04D0FB6803F4FD
:1011E4008033002BF2D00A4B1B68094A23F0010319
:1011F4001360074B00229A60FB88002BC6D100BF06
:1012040000BF1437BD465DF8047B70474C000020D6
:1012140010E000E070B50D4D0D4C641BA4100026C9
:10122400A64209D10B4D0C4C00F018F8641BA41015
:101234000026A64205D170BD55F8043B98470136F7
:10124400EEE755F8043B98470136F2E788120008A8
:1012540088120008881200088C120008F8B500BF34
:10126400F8BC08BC9E467047F8B500BFF8BC08BC83
:041274009E467047DB
:10127800000000000000000001020304060708093E
:04128800A9010008B0
:04128C0085010008D0
:101290000100000000127A00001401400014014017
:1012A00000140140002000400080000005001800EC
:0C12B000050018000500180001000000F7
:0400000508000DA141
:00000001FF
