:020000040800F2
:1000000000800120E96400081D2500082B25000858
:1000100031250008372500083D25000800000000B4
:100020000000000000000000000000004325000860
:1000300051250008000000005F2500086D2500081C
:100040003165000831650008316500083165000838
:100050003165000831650008316500083165000828
:10006000C12F0008316500083165000831650008BE
:100070003165000831650008316500083165000808
:1000800031650008316500083165000831650008F8
:1000900031650008316500083165000831650008E8
:1000A00031650008316500083165000831650008D8
:1000B0003D2E00084D260008316500083165000816
:1000C00031650008316500083165000831650008B8
:1000D00031650008316500083165000831650008A8
:1000E0003165000831650008316500083165000898
:1000F0003165000831650008316500083165000888
:100100003165000831650008316500083165000877
:100110003165000831650008316500083165000867
:100120003165000831650008316500083165000857
:100130003165000831650008316500083165000847
:1001400000000000000000000000000000000000AF
:100150003165000831650008316500083165000827
:100160003165000831650008316500083165000817
:100170003165000831650008316500083165000807
:0401800031650008DD
:1001900010B5054C237833B9044B13B10448AFF3C1
:1001A00000800123237010BD040C0020000000001B
:1001B000BC9E000808B5034B1BB103490348AFF3CD
:1001C000008008BD00000000080C0020BC9E000854
:1001D00001F0FF01102A2BDB10F0070F08D010F8F8
:1001E000013B013A8B422DD010F0070F42B3F6D1FC
:1001F000F0B441EA012141EA014122F007047FF015
:1002000000070023F0E80256083C85EA010586EA6B
:10021000010685FA47F5A3FA87F586FA47F6A5FAA7
:1002200087F68EB9EED1F0BC01F0FF0102F00702B3
:1002300032B110F8013B013A83EA010313B1F8D15E
:100240000020704701387047002D06BF354603383F
:10025000073815F0010F07D1013015F4807F02BF78
:10026000013015F4C03F0130F0BC0138704700BFC9
:10027000034613F8012B002AFBD1181A01387047E6
:1002800081F0004102E000BF83F0004330B54FEA47
:1002900041044FEA430594EA050F08BF90EA020FB4
:1002A0001FBF54EA000C55EA020C7FEA645C7FEA47
:1002B000655C00F0E2804FEA5454D4EB5555B8BF6A
:1002C0006D420CDD2C4480EA020281EA030382EADB
:1002D000000083EA010180EA020281EA0303362D6D
:1002E00088BF30BD11F0004F4FEA01314FF4801C40
:1002F0004CEA113102D0404261EB410113F0004F52
:100300004FEA03334CEA133302D0524263EB430308
:1003100094EA050F00F0A780A4F10104D5F1200EA6
:100320000DDB02FA0EFC22FA05F2801841F1000101
:1003300003FA0EF2801843FA05F359410EE0A5F1D5
:1003400020050EF1200E012A03FA0EFC28BF4CF006
:10035000020C43FA05F3C01851EBE37101F00045BC
:1003600007D54FF0000EDCF1000C7EEB00006EEBC9
:100370000101B1F5801F1BD3B1F5001F0CD3490853
:100380005FEA30004FEA3C0C04F101044FEA4452AA
:1003900012F5800F80F09A80BCF1004F08BF5FEA31
:1003A000500C50F1000041EB045141EA050130BD11
:1003B0005FEA4C0C404141EB0101013C28BFB1F523
:1003C000801FE9D291F0000F04BF01460020B1FA6E
:1003D00081F308BF2033A3F10B03B3F120020CDA41
:1003E0000C3208DD02F1140CC2F10C0201FA0CF01F
:1003F00021FA02F10CE002F11402D8BFC2F1200C84
:1004000001FA02F120FA0CFCDCBF41EA0C01904039
:10041000E41AA2BF01EB0451294330BD6FEA040482
:100420001F3C1CDA0C340EDC04F11404C4F120026D
:1004300020FA04F001FA02F340EA030021FA04F37F
:1004400045EA030130BDC4F10C04C4F1200220FAD6
:1004500002F001FA04F340EA0300294630BD21FA14
:1004600004F0294630BD94F0000F83F4801306BFDA
:1004700081F480110134013D4EE77FEA645C18BFCE
:100480007FEA655C29D094EA050F08BF90EA020F65
:1004900005D054EA000C04BF1946104630BD91EA5D
:1004A000030F1EBF0021002030BD5FEA545C05D160
:1004B0004000494128BF41F0004130BD14F580049F
:1004C0003CBF01F5801130BD01F0004545F0FE4113
:1004D00041F470014FF0000030BD7FEA645C1ABF48
:1004E000194610467FEA655C1CBF0B46024650EA7F
:1004F000013406BF52EA033591EA030F41F40021AB
:1005000030BD00BF90F0000F04BF0021704730B530
:100510004FF4806404F132044FF000054FF0000105
:1005200050E700BF90F0000F04BF0021704730B5C6
:100530004FF4806404F1320410F0004548BF40429B
:100540004FF000013EE700BF42004FEAE2014FEAF0
:1005500031014FEA02701FBF12F07F4393F07F4FCB
:1005600081F06051704732F07F4208BF704793F0CE
:100570007F4F04BF41F40021704730B54FF46074E1
:1005800001F0004521F000411CE700BF50EA0102E4
:1005900008BF704730B54FF000050AE050EA01028D
:1005A00008BF704730B511F0004502D5404261EBFD
:1005B00041014FF4806404F132045FEA915C3FF43E
:1005C000D8AE4FF003025FEADC0C18BF03325FEADB
:1005D000DC0C18BF033202EBDC02C2F1200300FA8C
:1005E00003FC20FA02F001FA03FE40EA0E0021FAB1
:1005F00002F11444BDE600BF70B54FF0FF0C4CF49F
:10060000E06C1CEA11541DBF1CEA135594EA0C0F50
:1006100095EA0C0F00F0DEF82C4481EA030621EA8B
:100620004C5123EA4C5350EA013518BF52EA0335C6
:1006300041F4801143F4801338D0A0FB02CE4FF078
:100640000005E1FB02E506F00042E0FB03E54FF0A8
:100650000006E1FB03569CF0000F18BF4EF0010EA0
:10066000A4F1FF04B6F5007F64F5407404D25FEA9C
:100670004E0E6D4146EB060642EAC62141EA55514F
:100680004FEAC52040EA5E504FEACE2EB4F1FD0C91
:1006900088BFBCF5E06F1ED8BEF1004F08BF5FEA0F
:1006A000500E50F1000041EB045170BD06F00046C1
:1006B00046EA010140EA020081EA0301B4EB5C046E
:1006C000C2BFD4EB0C0541EA045170BD41F4801166
:1006D0004FF0000E013C00F3AB8014F1360FDEBF8B
:1006E000002001F0004170BDC4F10004203C35DA67
:1006F0000C341BDC04F11404C4F1200500FA05F3EA
:1007000020FA04F001FA05F240EA020001F000428A
:1007100021F0004110EBD37021FA04F642EB060100
:100720005EEA430E08BF20EAD37070BDC4F10C042A
:10073000C4F1200500FA04F320FA05F001FA04F2EE
:1007400040EA020001F0004110EBD37041F10001DA
:100750005EEA430E08BF20EAD37070BDC4F12005E5
:1007600000FA05F24EEA020E20FA04F301FA05F24D
:1007700043EA020321FA04F001F0004121FA04F2F5
:1007800020EA020000EBD3705EEA430E08BF20EAC5
:10079000D37070BD94F0000F0FD101F000464000FF
:1007A00041EB010111F4801F08BF013CF7D041EA81
:1007B000060195F0000F18BF704703F00046520085
:1007C00043EB030313F4801F08BF013DF7D043EA56
:1007D0000603704794EA0C0F0CEA135518BF95EA0C
:1007E0000C0F0CD050EA410618BF52EA4306D1D193
:1007F00081EA030101F000414FF0000070BD50EAB2
:10080000410606BF1046194652EA430619D094EA3B
:100810000C0F02D150EA013613D195EA0C0F05D125
:1008200052EA03361CBF104619460AD181EA030179
:1008300001F0004141F0FE4141F470014FF0000031
:1008400070BD41F0FE4141F4780170BD70B54FF0CC
:10085000FF0C4CF4E06C1CEA11541DBF1CEA13554C
:1008600094EA0C0F95EA0C0F00F0A7F8A4EB05042E
:1008700081EA030E52EA03354FEA013100F0888025
:100880004FEA03334FF0805545EA131343EA1263EE
:100890004FEA022245EA111545EA10654FEA0026A3
:1008A0000EF000419D4208BF964244F1FD0404F55C
:1008B000407402D25B084FEA3202B61A65EB0305B8
:1008C0005B084FEA32024FF480104FF4002CB6EB75
:1008D000020E75EB030E22BFB61A754640EA0C00F5
:1008E0005B084FEA3202B6EB020E75EB030E22BF35
:1008F000B61A754640EA5C005B084FEA3202B6EB76
:10090000020E75EB030E22BFB61A754640EA9C0034
:100910005B084FEA3202B6EB020E75EB030E22BF04
:10092000B61A754640EADC0055EA060E18D04FEAC2
:10093000051545EA16754FEA06164FEAC30343EA62
:1009400052734FEAC2025FEA1C1CC0D111F4801F2F
:100950000BD141EA00014FF000004FF0004CB6E728
:1009600011F4801F04BF01430020B4F1FD0C88BFC7
:10097000BCF5E06F3FF6AFAEB5EB030C04BFB6EBD2
:10098000020C5FEA500C50F1000041EB045170BDC5
:100990000EF0004E4EEA113114EB5C04C2BFD4EBF2
:1009A0000C0541EA045170BD41F480114FF0000E76
:1009B000013C90E645EA060E8DE60CEA135594EAF2
:1009C0000C0F08BF95EA0C0F3FF43BAF94EA0C0FF5
:1009D0000AD150EA01347FF434AF95EA0C0F7FF46A
:1009E00025AF104619462CE795EA0C0F06D152EABE
:1009F00003353FF4FDAE1046194622E750EA4106A2
:100A000018BF52EA43067FF4C5AE50EA41047FF4B2
:100A10000DAF52EA43057FF4EBAE12E74FF0FF3C17
:100A200006E000BF4FF0010C02E000BF4FF0010CE8
:100A30004DF804CD4FEA410C7FEA6C5C4FEA430C61
:100A400018BF7FEA6C5C1BD001B050EA410C0CBFB0
:100A500052EA430C91EA030F02BF90EA020F002012
:100A6000704710F1000F91EA030F58BF994208BF79
:100A700090422CBFD8176FEAE37040F00100704736
:100A80004FEA410C7FEA6C5C02D150EA013C07D18D
:100A90004FEA430C7FEA6C5CD6D152EA033CD3D0D8
:100AA0005DF8040B704700BF8446104662468C46D2
:100AB0001946634600E000BF01B5FFF7B7FF002805
:100AC00048BF10F1000F01BD4DF808EDFFF7F4FF2E
:100AD0000CBF012000205DF808FB00BF4DF808EDB9
:100AE000FFF7EAFF34BF012000205DF808FB00BFDC
:100AF0004DF808EDFFF7E0FF94BF012000205DF8FE
:100B000008FB00BF4DF808EDFFF7CEFF94BF0120B2
:100B100000205DF808FB00BF4DF808EDFFF7C4FFAB
:100B200034BF012000205DF808FB00BF4FEA410CF4
:100B30007FEA6C5C02D150EA013C0AD14FEA430CD7
:100B40007FEA6C5C02D152EA033C02D14FF0000014
:100B500070474FF0010070474FEA410212F5001252
:100B600015D211D56FF47873B3EB625212D94FEAF4
:100B7000C12343F0004343EA505311F0004F23FADE
:100B800002F018BF404270474FF00000704750EA33
:100B9000013005D111F0004008BF6FF000407047F0
:100BA0004FF00000704700BF80B58AB000AF012150
:100BB000614804F0EAFE07F12003184604F0B0FE95
:100BC0004FF400733B62002387F82430042387F836
:100BD0002530102387F82630012387F8273007F1C6
:100BE00020031946554804F0FFFD4FF400433B62D3
:100BF00007F120031946514804F0F6FD80233B62BB
:100C000007F1200319464E4804F0EEFD10233B6225
:100C100007F120031946494804F0E6FD10233B6222
:100C200007F120031946454804F0DEFD434B4FF41D
:100C300000725A61414B4FF400421A613F4B01224E
:100C40001A613E4B02221A6107F12003184604F094
:100C500067FE20233B62002387F82430042387F8B3
:100C60002530082387F82630012387F8273007F13D
:100C700020031946314804F0B7FD80233B6207F199
:100C8000200319462D4804F0AFFD40233B620023AA
:100C900087F82630282387F8253007F120031946E6
:100CA000264804F0A1FD3B1D184605F04BF8002333
:100CB0003B7101237B710023BB710023FB71002377
:100CC0003B7201237B720123BB720123FB723B1D2C
:100CD00019461C4805F058F801211A4805F03AF960
:100CE0000121184805F021F9174804F027F94FF4BD
:100CF000A043FB821023BB82144B3B610123FB7694
:100D000001237B76124BFB600023BB7600233B76EE
:100D100002237B7700233B7707F10C0319460A482F
:100D200004F062F9022200210D2004F0BFFF00BF91
:100D30002837BD4680BD00BF0203103000080140C7
:100D4000001001400030014030000240340C00200F
:100D50000C30014080B584B000AF0346FB71002326
:100D6000FB6007E0FB680133FB60FB6842F2107236
:100D700093421ED80221124805F010F90346002BB9
:100D8000F0D0FB799BB219460D4805F0F8F8002326
:100D9000FB6006E0FB680133FB60FB68B3F5801F76
:100DA00009D28021064805F0F9F80346012BF1D05D
:100DB00002E000BF00E000BF1037BD4680BD00BFAD
:100DC0000030014080B485B000AF78603960002306
:100DD000FB81A1239BB2013B9BB2BB8136E0B7F9FB
:100DE0000E20B7F90C301344DA0F13445B10BB60CC
:100DF000BA6813465B0013449B001A463B681344D1
:100E00001B687A689A420AD1BA6813465B00134499
:100E10009B001A463B6813445B681BB21DE0BA682E
:100E200013465B0013449B001A463B6813441B683F
:100E30007A689A4205D9BB689BB201339BB2FB81A9
:100E400004E0BB689BB2013B9BB2BB81B7F90E20AB
:100E5000B7F90C309A42C2DDA12318461437BD46BB
:100E60005DF8047B7047000080B582B000AF9F231F
:100E70007F220021002001F009F80E4B1B89DBB214
:100E8000184600F01BF800237B6009E00A4A7B68E3
:100E900032F81330184600F034F87B6801337B6079
:100EA0007B68B3F5A04FF1DB00BF00BF0837BD463C
:100EB00080BD00BF240C0020340C002080B582B01F
:100EC00000AF0346FB71074B80225A61FB7918463D
:100ED000FFF740FF034B80221A6100BF0837BD4671
:100EE00080BD00BF0010014080B582B000AF034656
:100EF000FB71FB791846FFF72DFF00BF0837BD4691
:100F000080BD80B582B000AF0346FB80FB881B0A22
:100F10009BB2DBB21846FFF71DFFFB88DBB2184619
:100F2000FFF718FF00BF0837BD4680BD80B485B00D
:100F300000AF0346FB800B46BB8013467B80FB88DB
:100F40007F2B0CD8BB889F2B09D8BB88DA01FB8884
:100F50001344FB600549FB687A8821F8132000BF21
:100F60001437BD465DF8047B704700BF340C002089
:100F700080B588B000AFF860B9607A60BB68002BBC
:100F800071DB7B68002B6EDBFB685A68BB6813441F
:100F9000802B68DCFB689A687B681344A02B62DCBA
:100FA0000023FB6159E00023BB614EE0FB681B6836
:100FB000FA685268F96902FB01F1BA690A44520001
:100FC00013441B78FB75FB681A68FB685B68F9695A
:100FD00003FB01F1BB690B445B00013313441B7835
:100FE000BB75BB7DDB087B75BB7DDB005BB203F0B3
:100FF00038035AB2FB7D5B09DBB25BB213435BB2D1
:101000003B75FB7D03F03F03FB747B7DDB021AB273
:101010003B7D5B011BB213431AB2FB7C1BB2134333
:101020001BB23B82BB689AB2BB699BB2134498B2B5
:101030007B689AB2FB699BB213449BB23A8A194609
:10104000FFF774FFBB690133BB61FB685B68BA697A
:101050009A42ABDBFB690133FB61FB689B68FA6971
:101060009A42A0DB00E000BF2037BD4680BD0000F3
:1010700080B485B000AF0346FB800B46BB801346AF
:10108000FB70FB88DB0A9BB203F01F03FA7803FBBB
:1010900002F2BB88DB0A9BB203F01F03F978C1F1AF
:1010A000FF0101FB03F31344264A82FB03121A4497
:1010B000D211DB17D31AFB73FB885B099BB203F0D9
:1010C0003F03FA7803FB02F2BB885B099BB203F093
:1010D0003F03F978C1F1FF0101FB03F31344194AFF
:1010E00082FB03121A44D211DB17D31ABB73FB889D
:1010F00003F01F03FA7803FB02F2BB8803F01F031F
:10110000F978C1F1FF0101FB03F313440D4A82FB9F
:1011100003121A44D211DB17D31A7B73FB7BDB0259
:101120001AB2BB7B5B011BB213431AB27B7B1BB2AF
:1011300013431BB29BB218461437BD465DF8047BBF
:10114000704700BF8180808080B58CB000AFF860B0
:10115000B9607A60FB685B68FA68926802FB03F327
:101160005B007B620023FB6250E00023BB6245E032
:10117000FB685B68FA6A03FB02F2BB6A13445B001C
:101180003B62FB681A683B6A13441B88FB83FB685D
:101190005B68FA6A03FB02F2BB6A13447A6A13447F
:1011A000BB61FB681A68BB6913441B78FB757A68DE
:1011B000FB6A1344DA01B968BB6A0B441344184A4A
:1011C00032F81330BB82FA7DB98AFB8B1846FFF7E1
:1011D0004FFF03467B82BB689AB2BB6A9BB2134443
:1011E00098B27B689AB2FB6A9BB213449BB27A8A2C
:1011F0001946FFF79BFEBB6A0133BB62FB685B6865
:10120000BA6A9A42B4DBFB6A0133FB62FB689B68F3
:10121000FA6A9A42A9DB00BF00BF3037BD4680BDE5
:10122000340C002090B58DB000AF0446084611463E
:101230001A462346FB800346BB800B467B80134641
:101240003B800023BB6200237B627A88FB88D31A31
:101250003B623A88BB88D31AFB61FB88FB60BB8882
:10126000BB603B6A002B02DD01237B610BE03B6A24
:10127000002B02D100237B6105E04FF0FF337B613F
:101280003B6A5B423B62FB69002B02DD01233B6151
:101290000BE0FB69002B02D100233B6105E04FF01E
:1012A000FF333B61FB695B42FB613A6AFB699A422F
:1012B00002DD3B6ABB6101E0FB69BB610023FB858A
:1012C0002BE0FB689BB2BA6891B2B7F84020184691
:1012D000FFF72CFEBA6A3B6A1344BB627A6AFB6969
:1012E00013447B62BA6ABB699A4207DDBA6ABB697A
:1012F000D31ABB62FA687B691344FB607A6ABB69E4
:101300009A4207DD7A6ABB69D31A7B62BA683B6985
:101310001344BB60FB8D0133FB85FA8DBB69013340
:101320009A42CEDD00BF00BF3437BD4690BD90B5B8
:1013300085B000AF0446084611461A462346FB8096
:101340000346BB800B467B8013463B80BB88FB81FA
:1013500014E0FB88BB8108E03A8CF989BB89184608
:10136000FFF7E4FDBB890133BB81BA89F9887B882B
:101370000B449A42F0DBFB890133FB81FA89B9887F
:101380003B880B449A42E4DB00BF00BF1437BD46E4
:1013900090BD90B585B000AF0446084611461A4688
:1013A0002346FB800346BB800B467B8013467B7045
:1013B0007B88C3F101039BB2FB810123BB817B8846
:1013C0001A46D203D31A5B009BB27B8100233B8178
:1013D00092E0B7F90E30002B0BDB7B88013B7B8062
:1013E0007B8902339BB27B81FA897B8913449BB250
:1013F000FB81B7F908309BB201339BB23B81BB89BB
:1014000002339BB2BB81FA89BB8913449BB2FB8137
:101410007B7803F00803002B17D0FA887B88D31A57
:1014200098B23A89BB8813449BB23A8C1946FFF7AD
:101430007DFD3B89FA88D31A98B2BA887B88134419
:101440009BB23A8C1946FFF771FD7B7803F00403D9
:10145000002B17D03A89FB88134498B2BA887B884E
:1014600013449BB23A8C1946FFF760FDFA887B88DB
:10147000134498B23A89BB8813449BB23A8C1946FC
:10148000FFF754FD7B7803F00203002B17D0FA8896
:101490007B88134498B23B89BA88D31A9BB23A8CA2
:1014A0001946FFF743FD3A89FB88134498B2BA887E
:1014B0007B88D31A9BB23A8C1946FFF737FD7B78AD
:1014C00003F00103002B17D03B89FA88D31A98B296
:1014D000BA887B88D31A9BB23A8C1946FFF726FD4F
:1014E000FA887B88D31A98B23B89BA88D31A9BB200
:1014F0003A8C1946FFF71AFDB7F908207B889A4203
:10150000FFF667AF00BF00BF1437BD4690BD90B572
:1015100087B000AF0446084611461A462346FB80B2
:101520000346BB800B467B8013467B707B88C3F1F0
:1015300001039BB2FB820123BB827B881A46D20344
:10154000D31A5B009BB27B8200233B82A4E0B7F9F5
:101550001630002B0BDB7B88013B7B807B8A0233C0
:101560009BB27B82FA8A7B8A13449BB2FB82B7F9D7
:1015700010309BB201339BB23B82BB8A02339BB2D9
:10158000BB82FA8ABB8A13449BB2FB827B7803F04E
:101590000803002B1CD03B8ABA88D31A9BB2FB816C
:1015A0000EE0FA887B88D31A9BB2F9893A8D1846E7
:1015B000FFF7BCFCB7F90E309BB201339BB2FB8145
:1015C000B7F90E20B988B7F910300B449A42E8DD1C
:1015D0007B7803F00403002B1CD03B8ABA88D31A13
:1015E0009BB2BB810EE0FA887B8813449BB2B98919
:1015F0003A8D1846FFF79AFCB7F90C309BB20133CD
:101600009BB2BB81B7F90C20B988B7F910300B44F5
:101610009A42E8DD7B7803F00203002B1BD0BA88E6
:101620007B88D31A9BB27B810EE03A8AFB881344F5
:101630009BB279893A8D1846FFF778FCB7F90A30E2
:101640009BB201339BB27B81B7F90A20B9887B88B2
:101650000B449A42E9DD7B7803F00103002B1BD099
:10166000BA887B88D31A9BB23B810EE03B8AFA880A
:10167000D31A9BB239893A8D1846FFF757FCB7F950
:1016800008309BB201339BB23B81B7F90820B9887F
:101690007B880B449A42E9DDB7F910207B889A4297
:1016A000FFF655AF00BF00BF1C37BD4690BD90B5DB
:1016B00085B002AF0446084611461A462346FB8011
:1016C0000346BB800B467B8013463B80FA883B8BEE
:1016D000134498B2FA887B8813449AB23B8BD31A8E
:1016E0009BB2013B9AB2BC88B988BB8B009323465E
:1016F000FFF798FDFA883B8B134498B2BA883B8871
:1017000013449BB2013B99B2FA887B8813449AB286
:101710003B8BD31A9BB2013B9CB2BA883B881344E3
:101720009BB2013B9AB2BB8B009313462246FFF754
:1017300079FDBA883B8B134499B2BA883B8813442D
:101740009AB23B8BD31A9BB2013B9CB2FA88F888C1
:10175000BB8B00932346FFF765FDFA887B88134413
:101760009BB2013B98B2BA883B8B134499B2FA887A
:101770007B8813449BB2013B9CB2BA883B881344DC
:101780009AB23B8BD31A9BB2013B9AB2BB8B0093AC
:1017900013462246FFF746FDFA883B8B134498B266
:1017A000BA883B8B134499B23A8BBB8B00930123CD
:1017B000FFF7EFFDFA883B8B134498B2BA883B8859
:1017C00013449AB23B8BD31A9BB2013B99B23A8B2A
:1017D000BB8B00930823FFF7DCFDFA887B8813445A
:1017E0009AB23B8BD31A9BB2013B98B2BA883B8B1F
:1017F000134499B23A8BBB8B00930223FFF7C9FDC8
:10180000FA887B8813449AB23B8BD31A9BB2013B74
:1018100098B2BA883B8813449AB23B8BD31A9BB2D6
:10182000013B99B23A8BBB8B00930423FFF7B1FDC8
:1018300000BF0C37BD4690BD90B587B002AF0446DF
:10184000084611461A462346FB800346BB800B46DA
:101850007B8013463B807B88002B00F0B980FA88A0
:101860003B8C134498B27A883B8CD31A9AB23B8C47
:10187000D31A9AB23C88B988BB8C00932346FFF7F1
:1018800056FDFA883B8C134498B2BA883B8C1344BB
:1018900099B23A8CBB8C00930F23FFF738FEFA887D
:1018A0007B8813449AB23B8CD31A9BB2013B98B20B
:1018B000BA883B8C134499B23A8CBB8C00930F23AB
:1018C000FFF725FEFA883B8C134498B2BA883B8810
:1018D00013449AB23B8CD31A9BB2013B99B23A8C17
:1018E000BB8C00930F23FFF712FEFA887B8813440A
:1018F0009AB23B8CD31A9BB2013B98B2BA883B8810
:1019000013449AB23B8CD31A9BB2013B99B23A8CE6
:10191000BB8C00930F23FFF7FAFD0023FB8151E0FE
:10192000FA89FB88134498B2BA883B8C13449AB264
:10193000FB89D31A99B2FA89FB8813449CB2BA88FE
:101940003B8813449AB23B8CD31A9AB2FB89134456
:101950009BB2013B9AB2BB8C009313462246FFF721
:1019600061FCFA887B8813449AB2FB89D31A9BB234
:10197000013B98B2BA883B8C13449AB2FB89D31AC4
:1019800099B2FA887B8813449AB2FB89D31A9BB226
:10199000013B9CB2BA883B8813449AB23B8CD31A61
:1019A0009AB2FB8913449BB2013B9AB2BB8C009361
:1019B00013462246FFF736FCB7F90E309BB20133CF
:1019C0009BB2FB81B7F90E203B8C9A42A8DB00E06A
:1019D00000BF1437BD4690BD90B589B002AF044634
:1019E000084611461A462346FB800346BB800B4639
:1019F0007B8013463B807B88C3F101039BB2FB8253
:101A00000123BB827B881A46D203D31A5B009BB2A8
:101A10007B8200233B827B88FB81BA887B881344CE
:101A200099B23A88FB881846FFF780FABA887B8813
:101A3000D31A99B23A88FB881846FFF777FAFA88E2
:101A40007B8813449BB23A88B9881846FFF76EFA30
:101A5000FA887B88D31A9BB23A88B9881846FFF770
:101A600065FAFA887B88D31A98B27B885B009BB2B0
:101A700001339AB2B9883B8800930123FFF757FCE2
:101A800069E0B7F91630002B0EDBB7F90E309BB2C8
:101A9000013B9BB2FB817B8A02339BB27B82FA8A39
:101AA0007B8A13449BB2FB82B7F910309BB201339F
:101AB0009BB23B82BB8A02339BB2BB82FA8ABB8A4F
:101AC00013449BB2FB823B8AFA88D31A98B2FA89F4
:101AD000BB88134499B23B8A5B009BB201339AB234
:101AE0003B8800930123FFF722FC3B8AFA88D31A34
:101AF00098B2FB89BA88D31A99B23B8A5B009BB231
:101B000001339AB23B8800930123FFF710FCFB8955
:101B1000FA88D31A98B23A8ABB88134499B2FB89DF
:101B20005B009BB201339AB23B8800930123FFF71D
:101B3000FEFBFB89FA88D31A98B23B8ABA88D31A7B
:101B400099B2FB895B009BB201339AB23B88009348
:101B50000123FFF7ECFBB7F91020B7F90E309A42DA
:101B60008FDB00BF00BF1C37BD4690BDB0B58AB04B
:101B700004AF0446084611461A462346FB80034636
:101B8000BB800B467B8013463B80FB88FB82BB8877
:101B9000BB827A88FB8813447B803A88BB881344D5
:101BA0003B804DE0FB6A1B682D491846FFF70AF998
:101BB0000346FB74FA7C2A4913465B0013449B00DE
:101BC0000B4408331B68BB74BB6A5A68FB7C1B015F
:101BD0001344FB60FB88FA6812891A447B889A4296
:101BE00006DDFB8AFB80FB685A89BB881344BB80F7
:101BF000BB88FA6852891A443B889A422BDCBB6A3C
:101C00001B7A5B08DBB29AB2BB88134499B2BB6AF9
:101C10001D68BB6A5B68FC7CF888BA7C02923A8ECD
:101C2000019200932B46224600F01CF8FB685B688B
:101C30001B099AB2FB881344FB80FB6A0433FB62E6
:101C4000FB6A1B6840F25142934205D8FB6A1B684D
:101C50001F2BA7D800E000BF00BF1837BD46B0BD9E
:101C60000000002080B58EB000AF7B600346FB8192
:101C70000B46BB811346FB72FB7A1B013A6C134483
:101C80003B633B6B1B8987F82F303B6B5B8987F885
:101C90002E303B6B1B68BB623B6B9B89FB843B6BB1
:101CA000DB89BB840023FB8697F84830002B02D0E9
:101CB000012B08D00EE097F82E309BB2C3F104033D
:101CC0009BB2FB8606E097F82E309BB25B429BB23C
:101CD000FB8600BF002387F8353074E097F8353075
:101CE0009AB2BB8913449AB2FB8E13449AB2BB8C4E
:101CF000D31A9BB27B84002387F8343058E097F8DE
:101D0000353097F82F2003FB02F297F83430134454
:101D1000FB61FB695B08BB61BA6ABB6913447A6803
:101D200013441B781A46FB6903F00103002B01D111
:101D3000042300E0002342FA03F3DBB203F00F03B5
:101D4000FB75FB7D002B2ED0B7F92230DA01F98923
:101D500097F834301944B7F926300B4413441F4A1E
:101D600032F81330BB82FA7D13461B029B1A002BFC
:101D700000DA0F331B11FB74FA7CB98AB7F84430D0
:101D8000184600F02DF803463B8297F834309AB29B
:101D9000FB8913449AB2FB8C13449BB2798C3A8A28
:101DA0001846FFF7C3F897F83430013387F834301A
:101DB00097F8342097F82F309A42A0D397F835300F
:101DC000013387F8353097F8352097F82E309A424E
:101DD00084D300BF00BF3837BD4680BD340C00201F
:101DE00080B485B000AF0346FB800B46BB80134632
:101DF000FB70FB88DB0A9BB21A46FB7803FB02F2FE
:101E0000BB88DB0A9BB21946FB78C3F1FF0301FBD9
:101E100003F313441B12FB73FB885B099BB203F0B3
:101E20003F03FA7803FB02F2BB885B099BB203F025
:101E30003F03F978C1F1FF0101FB03F313441B12C7
:101E4000BB73FB8803F01F03FA7803FB02F2BB8825
:101E500003F01F03F978C1F1FF0101FB03F3134401
:101E60001B127B73FB7BDB021AB2BB7B5B011BB2D9
:101E700013431AB27B7B1BB213431BB29BB21846AF
:101E80001437BD465DF8047B7047000080B584B010
:101E900000AFF860B9607A603B60214B5B89DBB2D0
:101EA0001846FFF70BF8FB681B0ADBB21846FFF772
:101EB0001BF8FB68DBB21846FFF716F87B681B0AB5
:101EC000DBB21846FFF710F87B68DBB21846FFF765
:101ED0000BF8134B9B89DBB21846FEF7EFFFBB688C
:101EE0001B0ADBB21846FEF7FFFFBB68DBB21846E1
:101EF000FEF7FAFF3B681B0ADBB21846FEF7F4FF59
:101F00003B68DBB21846FEF7EFFF054B1B89DBB2DF
:101F10001846FEF7D3FF00BF1037BD4680BD00BF97
:101F2000240C002080B582B000AF0346FB71FB7922
:101F3000032B63D801A252F823F000BF4D1F000805
:101F4000791F0008A51F0008D11F00082E4B802212
:101F50001A802D4BA0225A802B4B2A225A812A4BC1
:101F60002B229A81284B2C221A813620FEF7A6FFBD
:101F70000020FEF7B9FF42E0234BA0221A80224B3B
:101F800080225A80204B2A225A811F4B2B229A8171
:101F90001D4B2C221A813620FEF790FFA020FEF761
:101FA000A3FF2CE0184B80221A80174BA0225A80E6
:101FB000154B2A225A81144B2B229A81124B2C2228
:101FC0001A813620FEF77AFFC020FEF78DFF16E05B
:101FD0000D4BA0221A800C4B80225A800A4B2A22D9
:101FE0005A81094B2B229A81074B2C221A813620C9
:101FF000FEF764FF6020FEF777FF00E000BF00BF40
:102000000837BD4680BD00BF240C002080B500AF5E
:102010001120FEF753FF0A2004F086FCCF20FEF7C4
:102020004DFF0020FEF760FFC120FEF75DFF30206E
:10203000FEF75AFFED20FEF741FF6420FEF754FF44
:102040000320FEF751FF1220FEF74EFF8120FEF71E
:102050004BFFE820FEF732FF8520FEF745FF00200A
:10206000FEF742FF7920FEF73FFFCB20FEF726FF69
:102070003920FEF739FF2C20FEF736FF0020FEF74F
:1020800033FF3420FEF730FF0220FEF72DFFF7204C
:10209000FEF714FF2020FEF727FFEA20FEF70EFFD1
:1020A0000020FEF721FF0020FEF71EFFC020FEF7F4
:1020B00005FFA220FEF718FFC120FEF7FFFEC52096
:1020C000FEF712FFC520FEF7F9FE0E20FEF70CFF0B
:1020D0003A20FEF7F3FE0520FEF706FFB120FEF7DB
:1020E000EDFE0120FEF700FF2C20FEF7FDFE2D2067
:1020F000FEF7FAFEB620FEF7E1FE0A20FEF7F4FE38
:10210000A220FEF7F1FE4420FEF7D8FE0220FEF7E3
:10211000EBFEE020FEF7D2FE0220FEF7E5FE1C20DB
:10212000FEF7E2FE0720FEF7DFFE1220FEF7DCFEE0
:102130003720FEF7D9FE3220FEF7D6FE2920FEF723
:10214000D3FE2D20FEF7D0FE2920FEF7CDFE252060
:10215000FEF7CAFE2B20FEF7C7FE3920FEF7C4FEAD
:102160000020FEF7C1FE0120FEF7BEFE0320FEF7B1
:10217000BBFE1020FEF7B8FEE120FEF79FFE032015
:10218000FEF7B2FE1D20FEF7AFFE0720FEF7ACFE05
:102190000620FEF7A9FE2E20FEF7A6FE2C20FEF755
:1021A000A3FE2920FEF7A0FE2D20FEF79DFE2E2087
:1021B000FEF79AFE2E20FEF797FE3720FEF794FEDC
:1021C0003F20FEF791FE0020FEF78EFE0020FEF776
:1021D0008BFE0220FEF788FE1020FEF785FE2920E8
:1021E000FEF76CFE00BF80BD80B500AFFEF7DCFCE3
:1021F0000F4B4FF400425A61642004F095FB0C4BE6
:102200004FF400421A61642004F08EFB084B4FF437
:1022100000721A61642004F087FB054B01225A61A9
:10222000FFF7F4FE0220FFF77DFE00BF80BD00BF78
:102230000008014080B485B000AF0346FB80002356
:10224000FB8107E0FB890949FA8821F81320FB8903
:102250000133FB81FB89B3F5A04FF3D300BF00BF6F
:102260001437BD465DF8047B704700BF340C002076
:1022700080B500AF02F052FC0121012002F010FDF8
:1022800000BF02F0A9FC0346002BFAD001223B213B
:10229000022002F09BFD002002F03AFE0121022004
:1022A00002F0FEFC00BF192002F06EFC0346012B79
:1022B000F9D1002002F048FD042002F071FD042055
:1022C00002F058FD012002F007FE022002F0CCFDD2
:1022D00000BF02F0F3FD0346022BFAD1002002F00A
:1022E000FBFD04F06BF900BF80BD000080B584B039
:1022F00000AF07F10803184603F012FB0123BB608F
:102300000023BB7300233B7318237B730123FB73F0
:1023100007F108031946304803F066FA0223BB6050
:102320000023BB7300233B7318237B730123FB73D0
:1023300007F108031946284803F056FA00228021C5
:102340004FF0804003F058FE00214FF0804003F032
:102350007FFE02214FF0804003F065FE00214FF028
:10236000804003F0B2FE00214FF0804003F0E9FF0F
:1023700000214FF0804003F0CFFF00233B71012389
:10238000BB7100237B710323FB713B1D00221946A7
:102390004FF0804003F0AEFE02233B710123BB717E
:1023A00000237B710323FB713B1D002219464FF074
:1023B000804003F09FFE0023002201214FF0804067
:1023C00004F01DF801214FF0804003F000FE00BF33
:1023D0001037BD4680BD00BF0008014080B586B003
:1023E00000AF0A2004F0A0FA07F11003184603F02A
:1023F00097FA0023BB7504233B6118237B7507F113
:10240000100319460D4803F0EFF90221022003F0F2
:1024100009FB3B1D184602F049FE01237B73002394
:102420003B710423BB6000233B733B1D184602F045
:1024300053FE00BF1837BD4680BD00BF00100140ED
:1024400080B483B000AF03463960FB7197F9073061
:10245000002B0ADB3B68DAB20C4997F9073012010E
:10246000D2B20B4483F800230AE03B68DAB2084991
:10247000FB7903F00F03043B1201D2B20B441A762E
:1024800000BF0C37BD465DF8047B704700E100E0FB
:1024900000ED00E080B582B000AF78607B68013B62
:1024A000B3F1807F01D301230FE00A4A7B68013B2F
:1024B00053600F214FF0FF30FFF7C2FF054B0022A2
:1024C0009A60044B07221A60002318460837BD465D
:1024D00080BD00BF10E000E080B500AF074B1B6877
:1024E000074AA2FB03239B091846FFF7D3FF0021ED
:1024F0004FF0FF30FFF7A4FF00BF80BD0C0A0020A3
:10250000D34D621080B400AF034B1B681846BD4624
:102510005DF8047B704700BF34AC002080B400AF8E
:1025200000BFBD465DF8047B704780B400AFFEE796
:1025300080B400AFFEE780B400AFFEE780B400AF28
:10254000FEE780B400AF00BFBD465DF8047B704776
:1025500080B400AF00BFBD465DF8047B704780B417
:1025600000AF00BFBD465DF8047B704780B400AF8C
:10257000044B1B680133034A136000BFBD465DF87E
:10258000047B704734AC002080B586B000AF786023
:102590007B682B4AA2FB03239B097B617968284B4C
:1025A000A3FB01239A0913469B011344CA1A4FF453
:1025B0007A7302FB03F33B61224B00221A707B69A2
:1025C000002B04D04FF6FF711F4803F070FD01226D
:1025D00001211D4803F0CAFE01211B4803F0E7FE5C
:1025E0000346002B13D10121174803F0F0FC0EE045
:1025F00000BF144B1B78DBB283F00103DBB2002B6E
:10260000F7D1104B00221A707B69013B7B617B691B
:10261000002BEDD13B69002B0DD00B4803F03BFDA7
:10262000F86000BF084803F036FD0246FB68D31A85
:102630003A699A42F6D800BF1837BD4680BD00BF40
:10264000FDC00FFC38AC00200004004080B500AF96
:102650000121074803F0ABFE0346002B06D0012101
:10266000034803F0BDFE034B01221A7000BF80BD7A
:102670000004004038AC002080B586B000AF786020
:102680000023FB8211E0FB8ADB027A6813443B6182
:10269000386902F015FF0346FB73FB7B032B01D067
:1026A000FB7B06E0FB8A0133FB82FB8A002BEAD02E
:1026B000032318461837BD4680BD000080B485B09E
:1026C00000AF0346FB711F4B1B8803F500339B02D1
:1026D000A3F580531B88FB811A4B1B8803F500333D
:1026E0009B02A3F500631B88BB81FB79012B09D1F9
:1026F000FB89002B01D100231DE0BB89002B19D1E0
:10270000012318E0FB894CF6CC42934201D100230F
:1027100011E0BB894CF6CC42934201D101230AE07F
:10272000FB89002B01D1002305E0BB89002B01D1DF
:10273000012300E0022318461437BD465DF8047BF0
:10274000704700BFE0F7FF1F80B586B000AF0346BB
:102750000A46FB801346BB800323FB740220FFF76D
:10276000ADFF03463B823B8A022B01D1012341E0AE
:10277000224B1B8803F500339B021A463B8ADB027F
:102780001344A3F580537B611C4B1B8803F5003376
:102790009B021A463B8ADB021344A3F60203FB604A
:1027A00023E07B691B68B3F1FF3F1BD1BB8819464F
:1027B000786902F053FF0346FB74FB7C032B01D0C6
:1027C000FB7C17E07B690233FA881146184602F059
:1027D00045FF0346FB74FB7C032B01D0FB7C09E027
:1027E000032307E07B6904337B617A69FB689A42C3
:1027F000D7D3012318461837BD4680BDE0F7FF1F29
:1028000080B586B000AF0323FB720120FFF756FFAF
:1028100003463B813B89002B10D1364B1B8803F5C7
:1028200000339B02A3F50063FB60324B1B8803F56A
:1028300000339B02A3F580533B6115E03B89012BDC
:1028400010D12C4B1B8803F500339B02A3F580535A
:10285000FB60284B1B8803F500339B02A3F5006344
:102860003B6101E0012341E04CF6CC41F86802F005
:10287000F5FE0346FB72FB7A032B01D0FB7A35E0B1
:102880000023FB8218E0BA1DFB8A1146184600F0AF
:102890001DFA0346002B0CD1FA88FB8A1146184614
:1028A000FFF752FF0346FB72FB7A032B01D0FB7A42
:1028B0001CE0FB8A0133FB82FB8AB3F5FF7FE2D980
:1028C0003869FFF7D9FE0346FB72FB7A032B01D070
:1028D000FB7A0BE00021F86802F0C0FE0346FB72B1
:1028E000FB7A032B01D0FB7A00E00323184618374C
:1028F000BD4680BDE0F7FF1F80B582B000AF032367
:10290000FB71194B1B8803F500339B02A3F5805321
:102910001846FFF7B1FE0346FB71FB79032B01D08C
:10292000FB791CE0104B1B8803F500339B02A3F5D9
:1029300000631846FFF7A0FE0346FB71FB79032BEB
:1029400001D0FB790BE0084B1B8803F500339B0299
:10295000A3F580530021184602F080FE0346184676
:102960000837BD4680BD00BFE0F7FF1F80B483B0CD
:1029700000AF03460A46FB801346BB80FA88BB883B
:102980009A4201D101231EE0FB884FF6FF72934269
:1029900009D0FB884CF6CC42934204D0FB88002B34
:1029A00001D001230FE0BB884FF6FF72934209D09C
:1029B000BB884CF6CC42934204D0BB88002B01D09C
:1029C000012300E0002318460C37BD465DF8047B68
:1029D0007047000080B582B000AF0323FB71012077
:1029E000FFF76CFE0346BB80BB88022B01D101239D
:1029F0001BE0104B1B8803F500339B021A46BB8873
:102A0000DB021344A3F602033B603B68023B1B68F6
:102A1000B3F1FF3F08D0FFF7F3FE0346FB71FB79EC
:102A2000032B01D0FB7900E0032318460837BD468D
:102A300080BD00BFE0F7FF1F80B582B000AF034646
:102A40000A46FB801346BB80FB884CF6CC4293427F
:102A50000CD10E4B1B8803F500339B02A3F580536A
:102A60000021184602F0FAFD03460BE0074B1B88D5
:102A700003F500339B02A3F500630021184602F022
:102A8000EDFD034618460837BD4680BDE0F7FF1F41
:102A900080B584B000AF03460A46FB801346BB8076
:102AA000FB884CF6CC42934208D1114B1B8803F5AE
:102AB00000339B02A3F58053FB6007E00C4B1B889F
:102AC00003F500339B02A3F50063FB60F868FFF792
:102AD000D3FD0346FB72FB7A032B01D0FB7A02E0A5
:102AE000FFF78EFE034618461037BD4680BD00BF77
:102AF000E0F7FF1F80B582B000AF0323FB7102F047
:102B0000B1FC554B1B8803F500339B02A3F58053A2
:102B10001B88BB80504B1B8803F500339B02A3F539
:102B200000631B887B80BB884FF6FF72934212D1F3
:102B3000494B1B8803F500339B02A3F580531846CD
:102B4000FFF79AFD0346FB71FB79032B03D002F0DC
:102B5000A3FCFB797BE07B884FF6FF72934212D196
:102B60003D4B1B8803F500339B02A3F50063184619
:102B7000FFF782FD0346FB71FB79032B03D002F0C4
:102B80008BFCFB7963E07A88BB8811461846FFF717
:102B9000EDFE0346002B0AD0FFF7AEFE0346FB71A5
:102BA000FB79032B03D002F077FCFB794FE0BB8865
:102BB0004FF6FF72934204D17B884CF6CC4293428D
:102BC00009D0BB884CF6CC42934213D17B884FF698
:102BD000FF7293420ED17A88BB8811461846FFF7E0
:102BE0002BFF0346FB71FB79032B03D002F054FC4F
:102BF000FB792CE0BB88002B04D17B884CF6CC42BF
:102C0000934207D0BB884CF6CC42934211D17B88CB
:102C1000002B0ED17A88BB8811461846FFF738FF83
:102C20000346FB71FB79032B03D002F035FCFB79E3
:102C30000DE0FFF7CFFE0346FB71FB79032B03D0BA
:102C400002F02AFCFB7902E002F026FC032318467E
:102C50000837BD4680BD00BFE0F7FF1F80B584B0D8
:102C600000AF03460A46FB801346BB800323FB7379
:102C700002F0F8FBFFF7AEFE0346FB73FB7B032B72
:102C800003D002F009FCFB7B1CE0BA88FB881146EC
:102C90001846FFF759FD0346FB73FB7B032B03D05C
:102CA00002F0FAFBFB7B0DE0FFF794FE0346FB739B
:102CB000FB7B032B03D002F0EFFBFB7B02E002F077
:102CC000EBFB032318461037BD4680BD80B586B0A8
:102CD00000AF03463960FB800120FFF7EFFC03469D
:102CE0007B827B8A022B01D102232FE0194B1B88A8
:102CF00003F500339B021A467B8ADB021344A3F6DA
:102D0000FC73FB60134B1B8803F500339B021A46D0
:102D10007B8ADB021344A3F602037B6111E07B692B
:102D20001B887B81FA887B899A4207D17B69023BA9
:102D30001B889AB23B681A80002307E07B69043B3A
:102D40007B617A69FB689A42E9D8012318461837F3
:102D5000BD4680BDE0F7FF1F80B584B000AF0346DD
:102D6000FB714FF0804003F096F90346FB73FA7B4A
:102D70002D4B1B689A4252D02B4B1B68DBB2FA7B5F
:102D8000D31ADBB2BB73FB7B274A136097F90E2083
:102D9000264B1B681344254A1360244B1B68002BE9
:102DA000B8BF5B42224A1278934238DB214B1B7832
:102DB0009AB21E4B1B681E49097893FBF1F39BB234
:102DC00013449BB2BB81B7F90C30002B03DA194BCB
:102DD00000221A7015E0184B1B6893F860301A46F1
:102DE000B7F90C309A4208DC134B1B6893F860303B
:102DF000013BDAB20F4B1A7003E0BB89DAB20D4B1C
:102E00001A70FB79002B07D00B4B1B68094A12780C
:102E10001146184601F014FD044B00221A6000BF51
:102E20001037BD4680BD00BF54AC002050AC002020
:102E30008C070020D8B2002024AD002080B582B0DD
:102E400000AF01212D4802F085FD0346002B14BF81
:102E500001230023FB710221284802F07BFD034679
:102E6000002B14BF01230023BB71254B1B78FA797B
:102E70009A4204D1234B1B78BA799A4230D0FFF79B
:102E800041FB0246204B1B68D31A0F22934227D9DD
:102E9000FFF738FB03461C4A1360FB79002B08D070
:102EA000BB79002B05D0194B1B68013B174A1360F7
:102EB00010E0FB7983F00103DBB2002B0AD0BB7971
:102EC00083F00103DBB2002B04D0104B1B680133ED
:102ED0000E4A13600A4AFB7913700A4ABB791370D1
:102EE000FFF710FB03460A4A136004214FF08040AD
:102EF00003F076FA00BF0837BD4680BD00080140E8
:102F000044AC002045AC002048AC002050AC002070
:102F10004CAC002080B59CB000AFFFF7F3FA03463D
:102F2000224A1360224B1A68224B1B7819460B4623
:102F3000DB005B1A1B011A443B46114670221846FF
:102F400003F062FD3B78012B09D1BB6D002B20D033
:102F5000BB6D174A1360174B00221A7019E03B78BB
:102F6000022B05D03B78032B02D03B78042B10D1E9
:102F70007B6D002B0DD07B6D0F4A934204D10C4B1F
:102F80001B680E4A934204D07B6D0A4A12781046A1
:102F90009847074B1B68074A12781146184601F0FC
:102FA0004FFC00BF7037BD4680BD00BF40AC002065
:102FB00024AD0020D8B200207943000828AD0020BD
:102FC00080B582B000AFFFF79DFA7860FFF79AFAFC
:102FD0000246144B1B68D31A1E2B1CD9FFF792FA1A
:102FE0000246114B1B68D31AFA2B14D9FFF78AFA41
:102FF00003460C4A13600D4B1B78DBB2002B14BF49
:1030000001230023DBB283F00103DBB203F00103F1
:10301000DAB2064B1A70042002F0C2F800BF08377B
:10302000BD4680BD3CAC0020E4AC0020E0AC0020FC
:1030300080B500AF084B1B8A9BB2DBB2002B09D0D6
:1030400002F010FA02F0B2FA0021044802F06CFB20
:1030500002F028FE00BF80BD00F8FF1F10F8FF1F20
:1030600080B500AFFFF704F900F02CF903F07EFB08
:1030700000F0AAF8FFF7B2F9FFF7DAFF00F0FAF86C
:1030800003F032FCFFF736FDFFF730F9FFF7ACF83D
:1030900000214FF0804002F0F0FFFFF71DFA01F031
:1030A00077FC0D4B0D4A1A600D4B00221A7000F090
:1030B00051F9094B1B680A4A12781146184601F06B
:1030C000BFFBFFF71FFA0346064A13600120FFF714
:1030D00043FE00F009F8F4E724AD002028AD0020FD
:1030E000D8B2002058AC002080B582B000AFFFF706
:1030F00009FA78600421314802F02CFC0346002BC9
:103100000CBF01230023FB702D4B1B78032B51D8E0
:1031100001A252F823F000BF293100083D31000818
:103120006931000893310008FB78002B3BD0244B19
:1031300001221A70234A7B68136034E0214B1B681C
:103140007A68D31A312B30D9FB78002B08D01C4B6E
:1031500002221A70002003F09DFBFFF7DBFE24E043
:10316000174B00221A7020E0FB7883F00103DBB2DA
:10317000002B03D0124B00221A7018E0114B1B6871
:103180007A68D31AB3F57A7F11D30D4B03221A70E4
:103190000DE0FB7883F00103DBB2002B09D0084B74
:1031A00000221A7005E000BF04E000BF02E000BF8B
:1031B00000E000BF00BF0837BD4680BD00100140E1
:1031C0005CAC002060AC002080B500AF01214FF462
:1031D000A01001F026FD0121214801F022FD01216E
:1031E0004FF4C01001F01DFD01211E4801F019FD32
:1031F00001211C4801F015FD01211A4801F011FDC3
:103200000121194801F00DFD0121164801F009FDC9
:103210000121144801F005FD0121124801F001FDD2
:103220000121104801F0FDFC01210E4801F0F9FCDC
:1032300001210C4801F0F5FC01210B4801F0F1FCE3
:1032400001210A4801F0EDFC01214FF4E01001F0EA
:10325000E8FC0121064801F0E4FC00BF80BD00BF8E
:103260000C001800020018000400180003001800E9
:1032700001001C0080B500AF032002F038FD0222DF
:1032800000210D2002F012FD002200214FF0FF303E
:1032900002F00CFD00220121082002F007FD0022AF
:1032A00002211C2002F002FD012204214FF0804087
:1032B00003F05CF8002201211D2002F0F7FC00BFA2
:1032C00080BD000080B500AF01F028FC0121042082
:1032D00001F0E6FC00BF1E4801F056FC0346012B3E
:1032E000F9D10121002001F0DBFC00BF012001F039
:1032F0004BFC0346012BF9D101223B21002001F0B8
:1033000065FD0121022001F0CBFC00BF192001F076
:103310003BFC0346012BF9D1002001F015FD0420F0
:1033200001F03EFD042001F025FD012001F0D4FD57
:10333000022001F099FD00BF01F0C0FD0346022B01
:10334000FAD1002001F0C8FD03F038F900BF80BDBC
:103350000100240080B500AF11490020FFF7B6FC42
:103360000F4B1B88002B14BF01230023DAB20D4B37
:103370001A70002000F086FC09490120FFF7A6FC26
:10338000074B1B88DAB2084B1A7205490220FFF777
:103390009DFC034B1B881AB2044B1A8000BF80BDF2
:1033A0006EAC0020B8090020AC090020EAAC002077
:1033B00080B588B002AF7860FFF7A4F878617B69C8
:1033C0001A4AA2FB03239B093B613B69184AA2FBF3
:1033D00003235B09FB60FB68154AA2FB03235B091F
:1033E000BB603A69124BA3FB021359090B461B0140
:1033F0005B1A9B00D31A3B61FA680D4BA3FB0213C7
:1034000059090B461B015B1A9B00D31AFB603B69F1
:103410000193FB680093BB68064A1421786803F0A7
:1034200009FB7B6818461837BD4680BDD34D621036
:1034300089888888D81D010880B500AFFFF762F839
:1034400003460E4A13600E4B01221A700020FEF74D
:10345000F1FEFDF709FD07E0094B1B78DBB283F0B5
:103460000103DBB2002B05D1054B1B78DBB2002B2F
:10347000F2D100E000BF00BF80BD00BFE4AC00207F
:10348000E0AC002080B58CB002AF0346FB71FFF7C3
:1034900039F80346BB4A1360BB4B01221A70BB4B81
:1034A0001A68BB4B1B7819460B46DB005B1A1B01E5
:1034B0001344B84A136041F28200FEF7BBFE00F0ED
:1034C00077FF1423FB770023BB771F237B771F2312
:1034D0003B770023FB760023BB7600233B8346E14A
:1034E00000237B6294E07B6A07EE903AF8EEE76A8D
:1034F000FB7F013B07EE903AB8EEE77AC6EE877A9B
:10350000C7ED037ABB7F07EE903AB8EEE77A7A7F91
:10351000BB7FD31A07EE903AF8EEE76AD7ED037A4D
:1035200066EEA77A77EE277AFCEEE77AC7ED007AA7
:103530003B78FB723B7F07EE903AB8EEE77AFA7E73
:103540003B7FD31A07EE903AF8EEE76AD7ED037A9D
:1035500066EEA77A77EE277AFCEEE77AC7ED007A77
:103560003B78BB72FB7ADB021AB2BB7E5B011BB2FB
:1035700013431AB2BB7A1BB213431BB23B833B8B80
:10358000009323233C2284211520FDF74BFE3B8B27
:10359000009324233D2285211620FDF743FE3B8B1B
:1035A000009384236C2223213C20FDF73BFE3B8BC0
:1035B000009384236D2223213D20FDF733FE3B8BB6
:1035C00000938423142272213F20FDF72BFE3B8BB6
:1035D00000938523152273213F20FDF723FE3B8BAB
:1035E000009384236C2272213F20FDF71BFE3B8B4E
:1035F000009385236C2273213F20FDF713FE41F2D7
:103600008830FEF7C1FFFDF72FFC7B6A01337B6238
:10361000FB7F7A6A9A42FFF666AF00233B629CE02A
:103620003B6A07EE903AF8EEE76AFB7F013B07EE54
:10363000903AB8EEE77AC6EE877AC7ED057A7B7FD7
:1036400007EE903AB8EEE77A7A7FBB7FD31A07EE9F
:10365000903AF8EEE76AD7ED057A66EEA77A77EE4C
:10366000677AFCEEE77AC7ED007A3B78FB74FB7E65
:1036700007EE903AB8EEE77A3A7FFB7ED31A07EE70
:10368000903AF8EEE76AD7ED057A66EEA77A77EE1C
:10369000277AFCEEE77AC7ED007A3B78BB74FB7CB7
:1036A000DB021AB2BB7E5B011BB213431AB2BB7CB6
:1036B0001BB213431BB23B833B8B009323233C225F
:1036C00084211520FDF7AEFD3B8B009324233D2282
:1036D00085211620FDF7A6FD3B8B009384236C22E9
:1036E00023213C20FDF79EFD3B8B009384236D221C
:1036F00023213D20FDF796FD3B8B0093842314226C
:1037000072213F20FDF78EFD3B8B00938523152210
:1037100073213F20FDF786FD3B8B009384236C22B1
:1037200072213F20FDF77EFD3B8B009385236C22A9
:1037300073213F20FDF776FD134B1B78DBB283F03E
:103740000103DBB2002B0ED141F28830FEF71CFFE3
:10375000FDF78AFB3B6A01333B62FB7F3A6A9A4280
:10376000FFF65EAF00E000BF0A4B00221A60064B76
:103770001B78DBB2002B7FF4B3AE00BF00BF28374D
:10378000BD4680BDE4AC0020E0AC002024AD0020AC
:10379000D8B20020DCB2002090B589B004AF034657
:1037A000FB711223FB730023BB73974B1B88802B89
:1037B00003D10F23FB730423BB7341F28200FEF796
:1037C00039FD00F0F5FD43F28613019307230093C2
:1037D0008723802217210020FEF72EF845F2AA2326
:1037E00001930523009366237F223B210120FEF7EE
:1037F00023F845F2AA230193072300931C23782280
:103800001A210420FEF718F800237B73B8E07A7BB6
:103810007E4913465B0013440B4402331B78FB7252
:103820007B7B302B23D87A7B784913465B0013448B
:103830000B441B789BB2023B98B27A7B73491346C8
:103840005B0013440B4401331B789AB2BB7B9BB2E1
:10385000D31A9BB2023B99B2FB7A9AB2FB7B9BB222
:1038600042F22414019404240094FDF7E5FF7B7BCD
:10387000292B18D17A7B654913465B0013440B440E
:103880001B7818467A7B614913465B0013440B444E
:1038900001331B781A46BB7BD31A1A4601465C4893
:1038A000FDF752FC69E07B7B2F2B43D17A7B574994
:1038B00013465B0013440B441B789BB2023B98B247
:1038C0007A7B524913465B0013440B4401331B7847
:1038D0009AB2BB7B9BB2D31A9BB2023B99B2FB7AE2
:1038E0009AB2FB7B9CB24B4B1B78002B02D045F26B
:1038F000AA2301E042F224130193042300932346F8
:10390000FDF79AFF7A7B414913465B0013440B4451
:103910001B78991E7A7B3D4813465B001344034491
:1039200001331B781A46BB7BD31A1A463A48FDF777
:103930000BFC22E07A7B354913465B0013440B44B1
:103940001B7898B27A7B314913465B0013440B44D1
:1039500001331B789AB2BB7B9BB2D31A99B27B7BA3
:103960002E4A52F823304FF6FF72029201932C4BED
:10397000009364237822FEF7F9F87B7B01337B7395
:103980007B7B302B7FF643AFFA79204913465B00EF
:1039900013440B4402331B783B73FA791B491346DB
:1039A0005B0013440B441B789BB2023B98B2FA793C
:1039B000164913465B0013440B4401331B789AB23B
:1039C000BB7B9BB2D31A9BB2023B99B23B7B9AB2B0
:1039D000FB7B9BB24FF6FF74019405240094FDF726
:1039E00066FE4FF6FF7302930E4B01930E4B00934E
:1039F0006423782224210A20FEF7B8F8FDF734FA70
:103A000000BF1437BD4690BD0E240108201E0108DA
:103A1000FC070020ECAC0020140800202408002043
:103A2000E89E0008F0AC0020DC9E000880B584B061
:103A300000AF0346FB71FEF765FD0346844A136041
:103A4000844B1B681946844BA3FB01231A091346B8
:103A5000DB009B1ADA00D21A8A1A1346FB73002382
:103A6000BB737E4B01221A707D4B1968FA7913469D
:103A7000DB009B1A1B010B447A4A1360FB7B184640
:103A8000FFF78AFE4FF00003BB60C2E00020FFF7A3
:103A900063F9754B1B6807EE903AF8EEE77A97EDFD
:103AA000027A77EE277AC7ED027A6F4B00221A600E
:103AB000D7ED027AF0EEE77AB1EE007AF4EEC77A4B
:103AC000F1EE10FA39DB97ED027AF1EE006AC7EEFB
:103AD000267AFDEEE77A17EE902A5E4B1B681344B8
:103AE0005C4A136097ED027AF1EE006AC7EE267A1F
:103AF000FDEEE77A17EE903A9B0007EE903AF8EE6B
:103B0000E77A97ED027A77EE677AC7ED027A514B42
:103B10001B68002BB8BF5B4219464F4BA3FB012328
:103B20001A091346DB009B1ADA00D21A8A1A1346C6
:103B3000FB73FB7B1846FFF72FFE484B1B78DBB26D
:103B400083F00103DBB2002B60D0FB7B292B15D166
:103B5000464B1B78002B59D0444B1B78013BDAB203
:103B6000424B1A70414B1B781946414B002243F8D7
:103B70002120FB7B1846FFF70FFE47E0FB7B2F2B36
:103B800013D13C4B1B78002B14BF01230023DBB265
:103B900083F00103DBB203F00103DAB2354B1A7094
:103BA000FB7B1846FFF7F8FD30E0FB7B302B02D1A2
:103BB0000123BB732AE0FB7B302B27D82B4B1B78D0
:103BC000092B23D82B4B1B78002B05D0FB7B2A4AD3
:103BD00052F823301B6804E0FB7B284A52F823305C
:103BE0001B68224A1278511CC8B22049087011463D
:103BF0001F4A42F821301D4B1B7819461C4B0022EE
:103C000043F82120FB7B1846FFF7C6FD134B01222A
:103C10001A70BB7B83F00103DBB2002B7FF436AF5D
:103C20000A220021124802F0BDFF03461AB2144BCB
:103C30001A80134BB3F9003019460220FFF70EF833
:103C4000084B00221A6000BF1037BD4680BD00BF80
:103C5000E4AC002020AD00209D829753E0AC002012
:103C600024AD0020DCB2002050AC00201CAD0020B0
:103C7000F0AC0020ECAC0020E80800202408002074
:103C8000EAAC002080B582B000AF0346FB71FEF7BE
:103C900039FC0346134A1360134B1B78012B03D1E5
:103CA0002020FDF70BF903E02120FDF707F900BF05
:103CB0000D4B1B7819460020FEF7D0FF0A4B1B78EE
:103CC000002B14BF01230023DBB283F00103DBB21E
:103CD00003F00103DAB2044B1A7000BF0837BD4687
:103CE00080BD00BFE4AC0020B8090020F0B5ADF500
:103CF000777D04AFAC4B01221A70FEF703FC03463C
:103D0000AA4A13604FF0804002F0C5F90346A7F8B5
:103D1000BA337123C7F8B4331F23C7F8B033022373
:103D2000C7F8AC330623C7F8A8331A23C7F8A4335F
:103D30000423C7F8C4339E4B1B88802B02D1032376
:103D4000C7F8C4339B4B1A689B4B1B7819460B462C
:103D5000DB005B1A1B011344984A136007F572736A
:103D6000A3F5727318464FF404731A46002102F04B
:103D700059FE07F57273A3F57276914B34461D46D2
:103D80000FCD0FC42B68236006F114033C220021E1
:103D9000184602F047FE07F57273A3F5727303220B
:103DA00083F85020874A07F57273A3F572735A653A
:103DB00007F57273A3F57274834A04F15803114630
:103DC0004422184602F020FE04F19C0300221A60EF
:103DD0005A609A6007F57273A3F57273032283F831
:103DE000A82007F5547207F57273A3F57273C3F830
:103DF000AC2007F57273A3F57276744B06F1B0042C
:103E00001D460FCD0FC40FCD0FC42B68236006F1E4
:103E1000D4032C220021184602F004FE07F5727329
:103E2000A3F57273022283F80021694B1B7A9AB2C0
:103E300007F57273A3F57273A3F8042107F5727383
:103E4000A3F57276634B06F584741D460FCD0FC43F
:103E50000FCD0FC495E8030084E8030006F59873BE
:103E600028220021184602F0DDFD5B4B1A7807F589
:103E70007273A3F5727383F85C2107F57273A3F56F
:103E80007276564B06F5B0741D460FCD0FC40FCD9C
:103E90000FC42B68236006F5C2732C22002118463C
:103EA00002F0C0FD07F57273A3F57273022283F866
:103EB000B0214B4BB3F900309AB207F57273A3F5FA
:103EC0007273A3F8B42107F57273A3F57276454BAC
:103ED00006F5DC741D460FCD0FC40FCD0FC42B6843
:103EE000236006F5EE732C220021184602F09AFD9D
:103EF00007F57273A3F57273032283F808223A4A16
:103F000007F57273A3F57273C3F80C220623C7F882
:103F1000A03341F28200FEF78DF900F049FA57E133
:103F200007F554731846FFF743FA43F286130193DB
:103F3000072300938723792217210220FDF77CFCB9
:103F40000020FEF709FF1C4B1B781A46D7F8A03358
:103F5000934206DCD7F8A033DBB2013BDAB2164B52
:103F60001A70154B1B78C7F8C033D7F8A023D7F8C1
:103F7000C433D31AD7F8C0239A4206DDD7F8A0235A
:103F8000D7F8C433D31AC7F8C033D7F8A033D8B2A0
:103F9000094B19780023042200F0DCFBD7F8C0336A
:103FA000C7F8BC33F2E000BFE0AC0020E4AC002076
:103FB0000E24010824AD0020D8B20020DCB200207D
:103FC0002C2201085C2101087C220108CC22010876
:103FD000AC0900201C230108B80900206C2301084B
:103FE000EAAC0020BC230108A4210108D7F8BC23B7
:103FF000D7F8C033D31AD7F8B013D7F8AC230A4494
:1040000002FB03F31A33C7F8A433D7F8A83398B2E6
:10401000D7F8A43399B2D7F8B4339AB2D7F8B033FB
:104020009BB244F64924019407240094FDF704FC54
:10403000D7F8A8339BB2053398B2D7F8A4339BB214
:10404000033399B23A46D7F8BC33582404FB03F340
:1040500013444FF6FF7202920193644B0093642362
:104060007822FDF783FD07F57273A3F57272D7F816
:10407000BC33582101FB03F3134450331B78032B4B
:1040800006D0032B7DDC002B4DD0022B22D078E014
:10409000D7F8A8339BB2053398B2D7F8A4339BB2B4
:1040A000113399B207F57273A3F57272D7F8BC3366
:1040B000582404FB03F3134454331B681A464FF689
:1040C000FF7302930192494B009364237822FDF71A
:1040D0004DFD56E007F57273A3F57272D7F8BC3345
:1040E000582101FB03F3134454331B8807F52C704C
:1040F0003F4A0A2102F09EFCD7F8A8339BB2053351
:1041000098B2D7F8A4339BB2113399B24FF6FF732C
:10411000029307F52C730193344B009364237822A8
:10412000FDF724FD2DE007F57273A3F57272D7F841
:10413000BC33582101FB03F3134454331B78002B89
:1041400001D02C4A00E02C4A07F5047311461846AA
:1041500002F0A4FCD7F8A8339BB2053398B2D7F885
:10416000A4339BB2113399B24FF6FF73029307F554
:10417000047301931D4B009364237822FDF7F6FC32
:1041800000BFD7F8BC330133C7F8BC33D7F8C0231E
:10419000D7F8C4331344D7F8BC239A4206DAD7F8C9
:1041A000BC23D7F8A0339A42FFF620AFFCF75CFEA1
:1041B000124B1B78DBB283F00103DBB2002B07D07C
:1041C000B7F8BA3319464FF0804001F056FF05E0CA
:1041D0000A4B1B78DBB2002B7FF4A2AE084B002207
:1041E0001A6000BF07F57377BD46F0BDE89E000872
:1041F000D4210108E021010804220108E0AC0020DC
:10420000DCB2002080B586B000AF0346FB71544B92
:1042100001221A70534B01221A70534B1968FA7914
:104220001346DB009B1A1B010B44504A13604E4B94
:104230001B68FA791146184600F002FBFEF762F996
:1042400003464B4A13604FF0804001F024FF0346C1
:104250003B823B8AFB820123FB730023BB8273E01A
:104260004FF0804001F017FF0346BB81BA89FB8AFB
:10427000D31A9BB27B82B7F91230402B04DD7B8AC4
:10428000803B9BB27B8208E0B7F9123013F1400FFC
:1042900003DA7B8A80339BB27B82BB89FB82BA8A3A
:1042A0007B8A13449BB2BB82B7F91430002BB8BF92
:1042B0005B429AB2FB7B9BB29A422DD32D4B1A7A6A
:1042C000B7F91410FB7B91FBF3F3DBB21344DAB2C2
:1042D000284B1A720023BB82264B1B7A1A46254BA9
:1042E0001B689A4205DA234B1B68DAB2214B1A721B
:1042F0000BE0204B1B7A1A461E4B5B689A4204DD8A
:104300001C4B5B68DAB21B4B1A72174B1B68FA79AD
:104310001146184600F094FA114B1B78DBB283F07B
:104320000103DBB2002B0FD00E4B00221A703B8A28
:1043300019464FF0804001F0A0FE0E4B1B7A194643
:104340000120FEF78BFC04E0054B1B78DBB2002B51
:1043500086D1064B00221A6000BF1837BD4680BDCB
:10436000E0AC0020E9AC002024AD0020DCB200204D
:10437000E4AC0020AC09002080B400AF094B1B68FE
:1043800093F86820084B1A70064B1B68DB6D054AD2
:104390001360064B00221A6000BFBD465DF8047B27
:1043A000704700BF24AD0020D8B20020DCB200204E
:1043B00080B586B004AF41F6E30300931523802255
:1043C00000210020FCF7B3FF4FF6FF7302932F4B41
:1043D00001932F4B00936423782205210320FDF7DE
:1043E000C5FB00237B602B4B1B68002B04D0294BA3
:1043F0001B6804337B6027E0274B1B68274A9342E6
:104400000AD1254B1B681B78012B05D00422032100
:104410002348FCF7ADFD17E01F4B1B68DB6D002B3D
:104420000ED01D4B1B68DA6D1B4B1B6893F8683070
:1044300019460B46DB005B1A1B011344043302E0F0
:10444000154B1B6804337B607B68002B0CD04FF648
:10445000FF7302937B6801930D4B009364237822D2
:1044600005210A20FDF782FB4FF6FF7302930D4BE7
:104470000193074B00936423782205215820FDF710
:1044800075FB00BF0837BD4680BD00BF142401087E
:10449000E89E0008DCB2002024AD002028AD0020FA
:1044A000900700201C24010880B58EB004AF78600E
:1044B0000B46FB701346BB70FB781AB297F90230BB
:1044C0001BB21344FB84FB789BB21A465200134480
:1044D0001A46D1001A460B4613449AB2964BB3F9CA
:1044E00000309BB213449BB21933BB847B685B6E74
:1044F000002B01D01B2300E006237B84B7F9263074
:104500008E4A127893420AD18D4B1B78DBB2002B76
:1045100002D044F24E3304E045F2AA2301E043F214
:1045200086133B84B7F92630844A1278934202D12D
:104530004FF6FF7300E00023FB837B681B78032B9F
:1045400003D07B681B78042B20D1B98C3B8C019362
:10455000072300932E2379220220FDF76DF9FB8BB0
:10456000002B09D0B98CFB8B0193072300932E23DA
:1045700079220220FDF79BF86F4BB3F900309BB214
:1045800017339BB21AB26C4B1A8016E0B98C3B8C75
:10459000019307230093172379220220FDF74CF99A
:1045A000FB8B002B09D0B98CFB8B01930723009365
:1045B000172379220220FDF77AF87B685B6E002BC7
:1045C00007D07B68586EBB8C01331A460421FCF778
:1045D000BBFDBB8C053399B27B680433788C4FF6F6
:1045E000FF7202920193574B009364237822FDF7E8
:1045F000BDFA7B681B78032B4FD17023BB83062346
:104600007B83BB8C1A333B837B68DB6E1B68FB822E
:104610007B68DB6E5B68BB827B68DB6E1B7A1A464D
:10462000B7F91630D31ABA8B03FB02F2B7F914109C
:10463000B7F91630CB1A92FBF3F39AB27B8B134483
:104640007B827A8A7B8B9A4208D37A8A798BBB8B5E
:104650000B449342A8BF13469BB200E07B8B7B8246
:104660007A8A7B8BD31A3B82BA8B398B788B4FF645
:10467000FF730193032300930C23FDF7DDF83B8ABE
:10468000062B0AD93A8A398B788B4CF20123019395
:10469000032300930C23FDF7CFF87B681B78042BD2
:1046A00046D10623FB73BB8CDBB21633BB73FB7B9B
:1046B00098B2BB7B99B27B68DB6E1B78002B02D073
:1046C0004CF2012301E048F6514301930723009384
:1046D00013232422FDF7B0F8FB7B7A68D26E1278A0
:1046E000002A01D01A2200E00922D018BB7B03F176
:1046F00009014DF6DB630722FDF76EF9FB7B9BB2E8
:10470000283398B2BB7B9BB2053399B27B68DB6ED2
:104710001B78002B01D00C4B00E00C4B4FF6FF72C6
:10472000029201930A4B009364237822FDF71EFA4C
:1047300000BF2837BD4680BDDAB20020D8B20020C5
:10474000E9AC0020DC9E0008302401084424010864
:10475000E89E000890B587B002AF044608461146AF
:104760001A462346FB710346BB710B467B71134609
:104770003B71FA797B799A420BD8A0231A4647F607
:10478000CF330093134680220A217E20FCF7CFFD11
:1047900052E0A0231A467B7903FB02F2FB7992FBDD
:1047A000F3F3BB81BB890A2B38BF0A23BB810023EB
:1047B000FB813B79002B13D0BA797B799A421CD3C9
:1047C000A0231946BA797B79D31A013303FB01F28E
:1047D000F9797B79CB1A013392FBF3F3FB810CE07F
:1047E000A0231A46BB89D31ABA7903FB02F2F979DE
:1047F0007B79CB1A92FBF3F3FB81FA89A02319464C
:10480000BB89CB1A9342A8BF1346FB81A0231A464B
:1048100043F286130093134680220A217E20FCF780
:1048200086FDFB8903F10A01BB8947F6CF3200926E
:1048300080227E20FCF77BFD1437BD4690BD000032
:1048400080B584B000AF78600B46FB7041F2820007
:10485000FDF7F0FC7B6893F86030BB73BB7B1946B7
:10486000786800F055F803467B73FA787B7BD31A9F
:10487000DBB20133DBB23B7397F90C30002B09DB61
:1048800097F90C20B97B7B7BCB1A9342A8BF1346C8
:104890005BB200E000233B731C4B00221A80002314
:1048A000FB7320E097F90C2097F90F301A44BB7B7B
:1048B0009A4212DA97F90C2097F90F3013441A46EE
:1048C0001346DB009B1A1B011A467B681344F97BD5
:1048D00097F90C201846FFF7E7FD97F90F30DBB288
:1048E0000133DBB2FB7397F90F207B7B9A42D9DB54
:1048F0007A7BF978B87B0123FFF72CFFFFF758FD8F
:10490000FCF7B2FA00BF1037BD4680BDDAB2002016
:1049100080B485B000AF78600B46FB700523FB7355
:104920001923BB810023FB7224E0FA7A1346DB00D3
:104930009B1A1B011A467B6813441B78032B0AD071
:10494000FA7A1346DB009B1A1B011A467B68134454
:104950001B78042B01D12E2200E01722BB891344BF
:10496000BB81BB89A02B02D9FB7AFB7309E0FB7AE0
:104970000133FB72FA7AFB789A4202D2BB89A02BF0
:10498000D3D9FB7B18461437BD465DF8047B7047CE
:10499000F0B5ADF2B45D00AF4C4A4D4B1046194630
:1049A00070231A4602F030F8484B4A4A70331146D9
:1049B0007022184602F028F8444B474AE03311466B
:1049C0007022184602F020F8444A454B104619461A
:1049D00070231A4602F018F8404B424A70331146D1
:1049E0007022184602F010F83C4B3F4AE033114663
:1049F0007022184602F008F8384B3C4A03F5A873B9
:104A000011467022184601F0FFFF394A394B104613
:104A1000194670231A4601F0F7FF354B70337022A8
:104A20000021184601F0FEFF314B022283F870206E
:104A30002F4E314B06F174041D460FCD0FC40FCD20
:104A40000FC495E8030084E8030006F19C032822C4
:104A50000021184601F0E6FF254B284AC3F8C42080
:104A6000234B062283F8D020214B254AC3F8D420BB
:104A70001F4B244AE03311467022184601F0C4FF50
:104A80001B4B214A03F5A87311467022184601F00A
:104A9000BBFF174B1D4A03F5E07311467022184601
:104AA00001F0B2FF124B1A4A03F50C731146702243
:104AB000184601F0A9FF174B0D4A1A60164B002249
:104AC0001A7000BF07F2B457BD46F0BD88B1002090
:104AD0005C240108CC2401083C250108C8AF002053
:104AE000AC2501081C2601088C260108FC260108BB
:104AF00028AD00206C270108DC27010839340008A4
:104B0000A80700202C2801089C2801080C2901086E
:104B10007C29010824AD0020D8B2002080B400AF69
:104B2000184A136843F00103136000BF154B1B685C
:104B3000C3F34003DBB2012BF8D1124A53686FF381
:104B40000103536000BF0F4B5B68C3F38103DBB20B
:104B5000002BF8D10B4B1B680A4A23F0867323F411
:104B600080331360074B00225A60064B00221A6301
:104B7000044B4FF41F029A6000BFBD465DF8047BF2
:104B8000704700BF0010024080B485B000AF78606D
:104B90000023FB737B681B0C03F1804303F5043394
:104BA0001A687B6803F01F03012101FA03F31A401E
:104BB0007B6803F01F03012101FA03F39A4202D03C
:104BC0000023FB7301E00123FB73FB7B18461437C2
:104BD000BD465DF8047B704780B582B000AF00230E
:104BE0007B600023FB7002E07B6801337B60112057
:104BF000FFF7CAFF0346012B03D07B68B3F5405F84
:104C0000F2D31120FFF7C0FF0346012B02D000238F
:104C1000FB7001E00123FB70FB7818460837BD46A6
:104C200080BD80B483B000AF78600B46FB70FB782A
:104C3000012B16D17B681B0C03F1804303F5043371
:104C400019687B6803F01F0301229A407B681B0CE4
:104C500003F1804303F50433184641EA020303607D
:104C600017E07B681B0C03F1804303F504331968DC
:104C70007B6803F01F03012202FA03F3DA437B6827
:104C80001B0C03F1804303F50433184601EA0203C9
:104C9000036000BF0C37BD465DF8047B7047000021
:104CA00080B483B000AF03460A46FB711346BB7164
:104CB000FB79042B3ED801A252F823F0D14C000816
:104CC000E54C0008F94C00080D4D0008214D000886
:104CD0001C4ABB7903F00103D9B2136861F30003E6
:104CE000136028E0174ABB7903F00103D9B21368B7
:104CF00061F3104313601EE0124ABB7903F0010315
:104D0000D9B2136861F31863136014E00D4ABB79DC
:104D100003F00103D9B2136A61F3000313620AE0DE
:104D2000084ABB7903F00103D9B2536A61F3000367
:104D3000536200E000BF00BF0C37BD465DF8047B46
:104D4000704700BF0010024080B483B000AF03463C
:104D5000FB71074AFB7903F00F03D9B2536861F383
:104D60000713536000BF0C37BD465DF8047B7047E6
:104D70000010024080B483B000AF0346FB71074AC5
:104D8000FB7903F00703D9B2536861F30A23536038
:104D900000BF0C37BD465DF8047B70470010024031
:104DA00080B483B000AF0346FB71074AFB7903F080
:104DB0000703D9B2536861F3CD23536000BF0C37AA
:104DC000BD465DF8047B70470010024080B483B09C
:104DD00000AF0346FB710B46BB7113467B71FB7939
:104DE000002B0AD11F4A53686FF3104353601D4ACA
:104DF000136B43F00073136312E01A4A536843F4D1
:104E000080335360FB79012B05D1164A53686FF349
:104E10005143536004E0134A536843F40033536032
:104E2000104ABB7903F00F03D9B2536861F395437D
:104E30005360BB791B110B4A03F00303D9B25368CB
:104E400061F35E735360074A7B7903F00103D9B2C3
:104E5000536861F3DF73536000BF0C37BD465DF8E4
:104E6000047B70470010024080B483B000AF03465B
:104E7000FB71114AFB7903F00303D9B2536861F364
:104E80000103536000BF00BF00BF00BF00BF00BFF1
:104E900000BF00BF00BF00BF00BF00BF00BF00BF1A
:104EA00000BF00BF00BF00BF00BF00BF00BF0C3786
:104EB000BD465DF8047B70470010024080B400AF2F
:104EC000044B5B68C3F38103DBB21846BD465DF853
:104ED000047B70470010024080B483B000AF0346EB
:104EE000FB71FB79012B05D1084A536D43F0300368
:104EF000536504E0054A536D6FF30513536500BF16
:104F00000C37BD465DF8047B704700BF00100240BF
:104F100080B483B000AF0346FB71074AFB7903F00E
:104F20000303D9B2536D61F30D33536500BF0C37E2
:104F3000BD465DF8047B70470010024080B485B028
:104F400000AF78600023FB607A6813686FF300039A
:104F500013607B6800221A607B6800225A607B68BD
:104F600000229A607B680022DA607B68FB60FA6846
:104F700040F2FF431340B3F5816F11D2174B5B68CA
:104F8000FA68D2B2083A1649A1FB0212120992003D
:104F90000F2101FA02F21146104A0B43536017E049
:104FA000FA6840F2FF431340B3F5916F10D20D4BF6
:104FB0005B68FA68D2B2083A0949A1FB02121209E9
:104FC00092000F2101FA02F21146064A0B43536088
:104FD00000BF1437BD465DF8047B704700000240F7
:104FE000CDCCCCCC0004024080B483B000AF78605C
:104FF00039607B681A684BF6EF7313407A68136068
:105000007B681B683A6812891A437B681A603B68A0
:105010005B7C03F00303D9B27A68136861F30D3344
:1050200013603B68DB7B03F00303D9B27A68136833
:1050300061F38B2313603B689B7B03F00303D9B2BE
:105040007A68136861F3092313603B685B7B03F0A4
:105050000103D9B27A68136861F3C71313603B6820
:105060001B7B03F00103D9B27A68136861F38613DE
:1050700013603B681B7C03F00103D9B27A681368A4
:1050800061F3451313603B685B891A467B685A607D
:105090003B681A687B689A603B685A687B68DA608C
:1050A00000BF0C37BD465DF8047B704780B483B009
:1050B00000AF78607B6800225A727B6800225A60D9
:1050C0007B6801221A727B6801221A7000BF0C37BC
:1050D000BD465DF8047B704780B485B000AF786052
:1050E0000023FB607B685B68FB602C4B1A68FB68E5
:1050F000DB432A4913400B60284B5A68FB68DB43AB
:10510000264913404B607B685B7A002B40D07B685C
:105110001B78002B06D1214B1A682049FB681343EA
:105120000B6005E01D4B5A681C49FB6813434B603C
:105130001A4B9A68FB68DB43184913408B60174B86
:10514000DA68FB68DB4315491340CB607B681B7A48
:10515000002B06D1114B9A681049FB6813438B60F2
:1051600016E07B681B7A012B06D10C4BDA680B49E1
:10517000FB681343CB600BE0084B9A680749FB6858
:1051800013438B60054BDA680449FB681343CB601B
:1051900000BF1437BD465DF8047B70470004014032
:1051A00080B483B000AF78600B4B1A697B68134002
:1051B0007A689A4206D1084A7B685361064A7B683E
:1051C000536102E0044A7B68536100BF0C37BD465F
:1051D0005DF8047B704700BF0004014080B483B0D9
:1051E00000AF0323FB71134BDB68C3F30003DBB297
:1051F000002B02D00023FB7115E00E4BDB68C3F3DC
:105200008003DBB2002B02D00123FB710BE0094BC2
:10521000DB68C3F30013DBB2002B02D00223FB7167
:1052200001E00323FB71FB7918460C37BD465DF89E
:10523000047B70470020024080B483B000AF03239A
:10524000FB71134BDB68C3F30003DBB2002B02D00E
:105250000023FB7115E00E4BDB68C3F38003DBB268
:10526000002B02D00123FB710BE0094BDB68C3F379
:105270000013DBB2002B02D00223FB7101E00323F9
:10528000FB71FB7918460C37BD465DF8047B70470F
:105290000020024080B483B000AF0323FB71134BA6
:1052A000DB6CC3F30003DBB2002B02D00023FB71E5
:1052B00015E00E4BDB6CC3F38003DBB2002B02D096
:1052C0000123FB710BE0094BDB6CC3F30013DBB272
:1052D000002B02D00223FB7101E00323FB71FB7959
:1052E00018460C37BD465DF8047B7047002002402D
:1052F00080B483B000AF0323FB71154BD3F88C301F
:10530000C3F30003DBB2002B02D00023FB7117E0D4
:105310000F4BD3F88C30C3F38003DBB2002B02D0E9
:105320000123FB710CE00A4BD3F88C30C3F300135C
:10533000DBB2002B02D00223FB7101E00323FB71DF
:10534000FB7918460C37BD465DF8047B704700BFFB
:105350000020024080B584B000AF78600323FB7367
:10536000FFF73CFF0346FB7306E0FFF737FF0346FA
:10537000FB737B68013B7B60FB7B002B02D17B686E
:10538000002BF2D17B68002B01D10423FB73FB7B44
:1053900018461037BD4680BD80B584B000AF786038
:1053A0000323FB73FFF748FF0346FB7306E0FFF799
:1053B00043FF0346FB737B68013B7B60FB7B002B59
:1053C00002D17B68002BF2D17B68002B01D1042332
:1053D000FB73FB7B18461037BD4680BD80B584B09B
:1053E00000AF78600323FB73FFF754FF0346FB73A2
:1053F00006E0FFF74FFF0346FB737B68013B7B60D2
:10540000FB7B002B02D17B68002BF2D17B68002B49
:1054100001D10423FB73FB7B18461037BD4680BDCA
:1054200080B584B000AF78600323FB73FFF760FFA3
:105430000346FB7306E0FFF75BFF0346FB737B68E5
:10544000013B7B60FB7B002B02D17B68002BF2D100
:105450007B68002B01D10423FB73FB7B18461037BC
:10546000BD4680BD80B400AF084B094A5A60074B67
:10547000084A5A60054B064A5A64044B054A5A6466
:1054800000BFBD465DF8047B704700BF00200240AE
:1054900023016745AB89EFCD80B400AF074A13699C
:1054A00043F080031361054A136D43F080031365D5
:1054B00000BFBD465DF8047B704700BF002002407E
:1054C00080B584B000AF78600323FB737B68B3F1D1
:1054D000006F1CD37B68334A934218D8324A136951
:1054E00043F002031361304A7B6853612E4A13690B
:1054F00043F0400313614FF08040FFF74DFF034638
:10550000FB73294A13696FF34103136145E07B681C
:10551000244A93421CD97B68B3F1016F18D2224A06
:10552000136D43F0020313651F4A7B6853651E4ADF
:10553000136D43F0400313654FF08040FFF74EFFBB
:105540000346FB73184A136D6FF34103136524E0A0
:105550007B68B3F1046F20D3134AD2F8903043F044
:105560000203C2F89030104A7B68C2F894300E4AA9
:10557000D2F8903043F04003C2F890304FF0FF3043
:10558000FFF74EFF0346FB73074AD2F890306FF3E4
:105590004103C2F8903000F015F9FB7B1846103734
:1055A000BD4680BDFFFF07080020024080B582B0E5
:1055B00000AF0323FB71A523BB8000F0F5F8034681
:1055C000002B01D00023BB80204B214A9A601F4B47
:1055D000204A9A6000BF1D4B1B69C3F34023DBB216
:1055E000002BF8D0194A136943F020031361174ABE
:1055F000136943F0400313614FF08040FFF7AAFEA8
:105600000346FB71114A13696FF345131361FB796C
:10561000032B15D1BB88A52B12D10C4A136943F07B
:10562000100313610C4ABB8813804FF48010FFF7FE
:1056300091FE0346FB71054A13696FF3041313616E
:10564000FB7918460837BD4680BD00BF00200240E8
:1056500023016745AB89EFCD00F8FF1F80B584B00B
:1056600000AF78600B467B800323FB737B68B3F14C
:10567000006F17D37B682A4A934213D8294A1369CB
:1056800043F0010313617B687A881A804FF480101D
:10569000FFF782FE0346FB73224A13696FF3000390
:1056A000136138E07B681E4A934217D97B68B3F1D7
:1056B000016F13D21B4A136D43F0010313657B681E
:1056C0007A881A804FF48010FFF788FE0346FB7338
:1056D000144A136D6FF3000313651CE07B68B3F18C
:1056E000046F18D30F4AD2F8903043F00103C2F888
:1056F00090307B687A881A804FF48010FFF790FE14
:105700000346FB73074AD2F890306FF30003C2F8E8
:10571000903000F057F8FB7B18461037BD4680BD2F
:10572000FFFF07080020024080B584B000AF78601A
:105730000B46FB700323FB737B68174A934204D12B
:10574000FB78A52B01D0032322E0144B144A9A6066
:10575000124B144A9A6000BF104B1B69C3F34023DD
:10576000DBB2002BF8D00D4A136943F0100313612C
:105770007B68FA7892B21A804FF48010FFF7EAFD46
:105780000346FB73054A13696FF304131361FB7B34
:1057900018461037BD4680BD00F8FF1F00200240AC
:1057A00023016745AB89EFCD80B400AF044BDB69C3
:1057B000C3F34003DBB21846BD465DF8047B704777
:1057C0000020024080B400AF4FF004631B68044B1C
:1057D0001B68044B1B6800BFBD465DF8047B704727
:1057E000001040080020400880B485B000AF786009
:1057F00039603B681B683B813B689B79032B02D176
:1058000000237B8130E03B689B79002B15D13B68FE
:105810005B799BB203F00F037B813B685B79182BAC
:1058200003D13A897B681A611EE03B685B79282BBB
:105830001AD13A897B685A6116E03B689B791BB2A2
:1058400003F008031AB23B681B791BB203F0040390
:105850001BB213431AB23B68DB791BB203F003039C
:105860001BB213431BB27B813B89DBB2002B25D0DB
:105870000023FB601FE03A89FB6842FA03F303F060
:105880000103002B14D07B681B68FA6892000F217B
:1058900001FA02F2D2431A407B681A607B681B68E7
:1058A0007989FA68920001FA02F21A437B681A6059
:1058B000FB680133FB60FB68072BDCD93B89FF2BBE
:1058C00028D93B891B0A3B810023FB601FE03A89F2
:1058D000FB6842FA03F303F00103002B14D07B684A
:1058E0005B68FA6892000F2101FA02F2D2431A4073
:1058F0007B685A607B685B687989FA68920001FA74
:1059000002F21A437B685A60FB680133FB60FB6854
:10591000072BDCD900BF1437BD465DF8047B704708
:1059200080B483B000AF78607B684FF6FF721A6076
:105930007B6800229A717B6800221A717B680422BE
:105940005A717B680122DA7100BF0C37BD465DF8E1
:10595000047B704780B485B000AF78600B467B80D5
:105960000023FB737A8879887B689B680B409A4296
:1059700002D00023FB7301E00123FB73FB7B18467D
:105980001437BD465DF8047B704780B487B000AF24
:1059900078600B46FB707B681B0E03F1804303F5B8
:1059A00080337B617B681B0CFB747B681B0ABB74B8
:1059B0007B687B74BB7CC3F12002FB7CD31A4FF065
:1059C000FF3202FA03F3FB60BB7CC3F12002FB7CD5
:1059D000D31AFA6822FA03F3FB60FB7CFA6822FA16
:1059E00003F3FB60FB7CFA6802FA03F3FB607B695C
:1059F0001968FB68DA437B690A401A60FB78002B60
:105A000009D07B691A68797CFB7C01FA03F319469B
:105A10007B690A431A6000BF1C37BD465DF8047BF2
:105A20007047000080B485B000AF03460A46FB71A2
:105A30001346BB710023FB60BB7903F003039B009B
:105A40000F2202FA03F3FB60BB799B08DBB2032B46
:105A50005AD801A252F823F0695A0008915A000856
:105A6000B95A0008E15A00082B4B9A68FB68DB43DF
:105A7000294913408B60284B9A68F979BB7903F068
:105A800003039B0001FA03F3234913438B603CE0BB
:105A9000214BDA68FB68DB431F491340CB601E4B88
:105AA000DA68F979BB7903F003039B0001FA03F389
:105AB00019491343CB6028E0174B1A69FB68DB4395
:105AC000154913400B61144B1A69F979BB7903F03E
:105AD00003039B0001FA03F30F4913430B6114E026
